:020000040800F2
:10000000A0050020A1010008290E00082B0B000804
:100010006D0B0008410900085F2600080000000081
:10002000000000000000000000000000BD1B0008F0
:100030004509000800000000E90F0008D51C000871
:10004000BB010008BB010008BB010008BB010008A0
:10005000BB010008BB010008BB010008BB01000890
:10006000BB010008BB010008BB010008BB01000880
:10007000BB010008BB010008BB010008BB01000870
:10008000BB010008BB010008BB010008BB01000860
:10009000BB010008BB010008BB010008BB01000850
:1000A000BB010008151E0008BB010008BB010008C9
:1000B000BB010008BB010008BB010008BB01000830
:1000C000BB010008BB010008BB010008BB01000820
:1000D000BB0100082521000845210008E522000891
:1000E000BB010008BB010008BB010008BB01000800
:1000F000BB010008BB010008BB010008BB010008F0
:10010000BB010008BB010008BB010008BB010008DF
:10011000BB010008BB010008BB010008BB010008CF
:10012000BB010008BB010008BB010008BB010008BF
:10013000BB010008BB010008BB010008BB010008AF
:10014000BB010008BB010008BB010008BB0100089F
:10015000BB010008BB010008BB010008BB0100088F
:10016000BB010008BB010008BB010008BB0100087F
:10017000BB010008BB010008BB010008BB0100086F
:10018000BB010008BB010008DFF810D000F046FA00
:100190000048004789380008AFF30080A005002020
:1001A0000648804706480047FEE7FEE7FEE7FEE711
:1001B000FEE7FEE7FEE7FEE7FEE7FEE7E51C0008D8
:1001C0008901000800F0004230F000400AD0C10D63
:1001D00001F56071C0F3160042EA0151C208400700
:1001E00011437047002001467047000030B5041EDF
:1001F00071F1000404DB4FF00044404264EB010164
:10020000141E73F1000405DB1C464FF000435242FC
:1002100063EB04038B4208BF824230BD30B5041E3D
:1002200071F1000404DB4FF00044404264EB010133
:10023000141E73F1000405DB1C464FF000435242CC
:1002400063EB0403994208BF904230BD30B50B46C2
:10025000014600202022012409E021FA02F59D42F6
:1002600005D303FA02F5491B04FA02F52844151ECA
:10027000A2F10102F1DC30BD2DE9F05F054600205E
:1002800092469B4688460646814640241BE0284607
:1002900041464746224600F0E2F953465A46C01A04
:1002A000914110D311461846224600F0C9F92D1A83
:1002B00067EB01084F4622460120002100F0C0F9FB
:1002C00017EB00094E41201EA4F10104DFDC484673
:1002D00031462A464346BDE8F09F2DE9FE4F804651
:1002E00081EA0300C00F0C46009021F0004123F08A
:1002F0000045B8EB0200A94105D240462146904690
:100300001C460B46024623F00040104347D0270D01
:10031000C7F30A00C3F30A510290401A0190402823
:100320006BDAC3F3130040F4801B0098924620B1AF
:100330000023D2EB030A63EB0B0B01985946C0F183
:100340004002504600F07CF906460D46504659469C
:10035000019A00F094F910EB08006141002487EA4B
:10036000115284EAE7731A4340D0009A62B3019AAB
:10037000012A4FEA075215DC001B61EB02014FF026
:10038000004202EA0752CDE90042001C41F580110B
:1003900032462B4600F094F903B0BDE8F08F40469A
:1003A0002146F9E7001B61EB0201001C41F58013B7
:1003B00000185B412018A2F5001747EB030140EA43
:1003C000D570B6196D4111E06D084FEA360645EA61
:1003D000C0754FEA0752001B61EB0201001C41F59A
:1003E000801149084FEA30000019514132462B462E
:1003F00003B0BDE8F04F00F054B90098012240006E
:100400000023D0EB020263EBE073009821464FEA31
:10041000E074B8EB000061EB0401E9E783F000430E
:100420005BE781F0004158E72DE9FE4F81EA0304C4
:1004300004F0004421F0004100944FF0000B23F041
:10044000004350EA01045ED052EA03045BD0C3F3D8
:100450000A54C1F30A552C44A4F2F3340194A0FBCE
:100460000254C1F3130141F48011C3F3130343F4A5
:10047000801301FB024400FB034E840A970A44EAFE
:10048000815447EA8357A4FB076802958D0A05FB50
:1004900007854FEA932C04FB0C542705029D4FEA75
:1004A000065847EA1637B5EB08056EEB070C870EC2
:1004B000920E47EA811742EA8312A7FB0201B6EBCC
:1004C0000B0164EB00042B0D43EA0C335E1844EB84
:1004D0001C50DA465146E7FB0201C5F313044FEA0C
:1004E0000B3343EA14534FEA0432019C43EA0603F8
:1004F000A4F10C040294009CCDE900B400F0E0F8F3
:1005000003B0BDE8F08F00200146F9E72DE9F04D7A
:1005100081EA030404F0004B21F0004514464FF03B
:10052000000A23F0004150EA050220D054EA0102FB
:100530001DD0C5F30A570246C5F31303C1F31300D8
:10054000C1F30A5640F4801543F48013A7EB060864
:10055000101BD64608F2FD3873EB050002D308F1F4
:10056000010801E092185B41B8F1000F03DA0020A6
:100570000146BDE8F08D00204FF480110646844608
:100580000EE0171B73EB050705D3121B63EB050386
:1005900006434CEA010C49084FEA300092185B41CF
:1005A00050EA0107EDD152EA030012D082EA0400BA
:1005B00083EA0501084305D0101BAB4106D2012296
:1005C000002306E000224FF0004302E06FF001023A
:1005D00053101AEB06004CEB085110EB0A0041EBEC
:1005E0000B01BDE8F04D00F05CB8C1F30A52C1F355
:1005F000130140F2FF3341F480119A4202DA0020E5
:100600000146704740F233439A42A2F2334202DC81
:10061000524200F024B800F013B80000064C074D19
:1006200006E0E06840F0010394E8070098471034C2
:10063000AC42F6D3FFF7ACFD2C3C00084C3C000864
:10064000202A04DB203A00FA02F100207047914092
:10065000C2F1200320FA03F3194390407047202A87
:1006600004DB203A21FA02F00021704721FA02F35C
:10067000D040C2F120029140084319467047202A19
:1006800006DBCB17203A41FA02F043EAE07306E0BA
:1006900041FA02F3D040C2F12002914008431946CA
:1006A000704710B5141E73F1000408DA401C41F1C4
:1006B000000192185B411A4301D120F0010010BDE6
:1006C0002DE9F04D92469B4611B1B1FA81F202E05C
:1006D000B0FA80F220329046FFF7B2FF04460F4690
:1006E00040EA0A0041EA0B0153465A46084313D038
:1006F000114653EA010019D0C8F140025046FFF7F5
:10070000AEFF05460E46504659464246FFF798FF53
:10071000084305D0012004E020463946BDE8F08DAD
:100720000020054346EAE0762C4337430A986305E8
:10073000E40AA0EB08000022FD0A44EA47540A300C
:1007400002D500200146E9E7010510196941DDE9FC
:10075000084500196941BDE8F04DA2E770B58C1855
:1007600010F8015B15F0070301D110F8013B2A11C5
:1007700006D110F8012B03E010F8016B01F8016BB2
:100780005B1EF9D12B0705D40023521E0DD401F8AE
:10079000013BFAE710F8013BCB1A921C03E013F877
:1007A000015B01F8015B521EF9D5A142D8D30020AC
:1007B00070BD00001CB50121042000F017FC0620CC
:1007C000009001208DF8040000208DF80600032021
:1007D0008DF8050000208DF807006946014800F0FB
:1007E00025F91CBD0008024070B504460D46012CD9
:1007F0000AD1002202210C4800F091F901220421C3
:10080000094800F08CF909E001220221064800F0B5
:1008100086F900220421044800F081F929460348A2
:1008200001F001FC70BD000000080240000400401F
:1008300010B54FF47A71A82001F088FA10BD0000BD
:100840000220014908707047E000002010B50446FE
:100850001148007805281DD2DFE800F0030C1014C1
:1008600018009FED0E0A0E4880ED000A00200D4989
:1008700008700FE0204600F07DFC0BE0204600F001
:10088000DBFC07E0204600F087FE03E0204601F095
:1008900003F800BF00BF10BDE00000200000000012
:1008A000240000202C0000209FED040A044880ED65
:1008B000000A0020024908718860704700000000AB
:1008C000440100201CB50121042000F08FFB1820FA
:1008D000009001208DF8040000208DF80600032010
:1008E0008DF8050000208DF807006946014800F0EA
:1008F0009DF81CBD0008024070B504460D46012C51
:100900000AD1002208210C4800F009F90122102127
:10091000094800F004F909E001220821064800F026
:10092000FEF800221021044800F0F9F82946034897
:1009300001F077FB70BD0000000802400004004099
:1009400000BFFEE7704710B54FF0804001F0A5FAF8
:1009500004B200214FF0804001F067FB204610BD3B
:1009600010B5054801F099FA04B20021024801F0DF
:100970005CFB604200B210BD000800401CB50121C4
:10098000032000F033FB0121052000F03FFB032092
:10099000009002208DF8040003208DF8050001204E
:1009A0008DF8070069461E4800F040F8C02000900E
:1009B00069461C4800F03AF801220021184800F06E
:1009C0007DF801221146164800F078F8022206212F
:1009D000144800F073F802220721124800F06EF864
:1009E00000231A4603214FF0804001F035FA00231E
:1009F0001A4603210C4801F02FFA00214FF08040E5
:100A000001F013FB0021084801F00FFB01218807CA
:100A100001F016FA0121044801F012FA1CBD000091
:100A2000000002400004024000080040F0B50A4601
:100A300000210023002400BF3DE0012505FA01F359
:100A4000156805EA03049C4234D105684F0003266B
:100A5000BE40B543056015794E00B5400668354384
:100A600005601579012D02D01579022D16D1856802
:100A70004F000326BE40B543856055794E00B54012
:100A8000866835438560456801268E40B5434560DC
:100A9000456896798E40B6B235434560C5684F00CB
:100AA0000326BE40B543C560D5794E00B540C66843
:100AB0003543C560491C1029BFD3F0BDF0B50023F4
:100AC00000244D07ED0E02FA05F3CE1000F12005CB
:100AD00055F826504E07F70E0F26BE40B543CF10EF
:100AE00000F1200646F82750CE1000F1200555F8F9
:100AF000265045EA0304CE1000F1200545F82640B3
:100B0000F0BD0A0482617047816170474FF6FF7142
:100B100001600021017141718171C17170470AB199
:100B2000816101E00B048361704700BFFEE70000B4
:100B30001CB50121022000F059FA04200090012088
:100B40008DF8040000208DF8060003208DF80500C4
:100B500001208DF8070069460348FFF767FF04216D
:100B60000148FFF7CEFF1CBD0004024000BFFEE7B6
:100B7000B0EE401A184880ED001AD0ED001A71EE60
:100B8000E01AC0ED041AD0ED011A90ED042A61EECE
:100B9000821AB0EE610AD0ED071AF4EEC01AF1EE37
:100BA00010FA03D2D0ED071AB0EE610A0A48D0ED70
:100BB000071AF1EE611AF4EEC01AF1EE10FA05DD33
:100BC000D0ED071AF1EE611AB0EE610A0248D0EDDD
:100BD000041AC0ED051A7047A000002010B52DEDD5
:100BE000068BFFF7B0FE0446FFF7BAFE09EE100AC7
:100BF0004948006820444849086048480078401C3B
:100C00004649087008460078022830DB002008704A
:100C10009FED430AF0EE40AA42480078012812D125
:100C200001F020FD012809D13F48D0ED000AB0EEC7
:100C3000600A01F027FDF0EE40AA08E09FED380AB7
:100C4000F0EE40AA03E09FED360AF0EE40AA3748E6
:100C5000D0ED000A70EEAA0AB0EE600A3448D0ED7A
:100C6000000A00F06FF8334880ED000A00BF3248F8
:100C700090ED000A2F48D0ED000A70EE209A2E4821
:100C800090ED000A2B48D0ED000A30EE60AA2B4808
:100C9000C0ED009A2A4880ED00AA00EE104AB8EE96
:100CA000C00A264800F008F9F0EE408AB8EEC90AFA
:100CB000234800F001F9B0EE408AF5EEC08AF1EE6B
:100CC00010FA07DBBCEEE80A10EE101A0120FFF75D
:100CD0008BFD08E0B1EE680ABCEEC00A10EE101AF7
:100CE0000020FFF781FDB5EEC08AF1EE10FA07DBB8
:100CF000BCEEC80A10EE101A0120FFF7FDFD08E057
:100D0000B1EE480ABCEEC00A10EE101A0020FFF740
:100D1000F3FDBDEC068B10BD28000020C0000020B4
:100D2000000000002C0000204401002014000020DE
:100D300014010020200000202400002030000020AA
:100D400058000020B0EE401A324880ED001A90EDB5
:100D5000000A30EE600A80ED040A90ED040ADFED2F
:100D60002E1AB4EEE10AF1EE10FA07DD90ED040A56
:100D7000DFED2A1A30EE610A80ED040A254890ED75
:100D8000040ADFED271AB4EEE10AF1EE10FA07D2F9
:100D900090ED040ADFED211A30EE210A80ED040AFD
:100DA0001C4890ED010AD0ED041A20EE210A1D48DE
:100DB00080ED000A174890ED070A1A48D0ED001A96
:100DC000B4EEE10AF1EE10FA05D2124890ED070AEE
:100DD000144880ED000A0F4890ED070AB1EE400A72
:100DE0001048D0ED001AB4EEE10AF1EE10FA07DD7A
:100DF000084890ED070AB1EE400A0A4880ED000A63
:100E0000044890ED040A80ED050A064890ED000ABA
:100E10007047000080000020000034430000B4430D
:100E2000000034C3200000207047000070B500218E
:100E300000230F22C4781CB3174C246804F4E06428
:100E4000C4F5E064C4F30721C1F10404E3B20A412C
:100E500044789C40E1B28478144021430C07210E71
:100E60000E4C05786155047804F01F050124AC4050
:100E700005786D11AD0005F1E025C5F8004109E0E8
:100E8000047804F01F050124AC40054D0678761166
:100E900045F8264070BD00000CED00E000E400E0E5
:100EA00080E100E002490143024A116070470000FE
:100EB0000000FA050CED00E010B52DED088B04469E
:100EC000F0EE408A94ED000A30EE680A84ED040AE0
:100ED00094ED060AD4ED040A30EE200A84ED060AE9
:100EE00094ED060AD4ED070AB4EEE00AF1EE10FA2A
:100EF00003DD94ED070A84ED060A94ED060AD4EDAD
:100F0000070AF1EE600AB4EEE00AF1EE10FA05D23B
:100F100094ED070AB1EE400A84ED060A94ED010A49
:100F2000D4ED040A20EE200AD4ED020A94ED061A4C
:100F300000EE810AD4ED040A94ED051A70EEC10AA0
:100F400094ED031AB0EE408A01EE208A94ED080A6F
:100F5000B4EEC80AF1EE10FA03D294ED080AB0EE2E
:100F6000408A94ED080AB1EE400AB4EEC80AF1EEE8
:100F700010FA05DD94ED080AB1EE400AB0EE408AA1
:100F800094ED090A10EE101A0846FFF71BF941EC20
:100F9000190B18EE100AFFF715F941EC1B0BB0EE18
:100FA0004B0AF0EE6B0A01F0F9FDB0EE40AAF0EE4C
:100FB00060AA53EC192B51EC1A0BFFF717F907D263
:100FC0009FED080AB0EE408A9FED060A84ED060AFE
:100FD00094ED040A84ED050AB0EE480ABDEC088BD6
:100FE00010BD0000000000007047000029B1064A53
:100FF00012680243044B1A6004E0034A12688243F9
:10100000014B1A60704700003038024029B1064A8F
:1010100012680243044B1A6004E0034A12688243D8
:10102000014B1A60704700004038024029B1064A5F
:1010300012680243044B1A6004E0034A12688243B8
:10104000014B1A60704700002038024029B1064A5F
:1010500012680243044B1A6004E0034A1268824398
:10106000014B1A60704700004438024029B1064A1B
:1010700012680243044B1A6004E0034A1268824378
:10108000014B1A607047000024380240F0B500217F
:1010900000220024022500260223324F3F6807F079
:1010A0000C0121B1042905D0082937D105E02E4FC4
:1010B000076036E02D4F076033E02A4F3F1F3F683F
:1010C000C7F38056274F3F1F3F6807F03F036EB1BD
:1010D000264FB7FBF3F7DFF88CC0ACF1040CDCF85B
:1010E00000C0CCF3881C07FB0CF40CE01E4FB7FBD0
:1010F000F3F7DFF870C0ACF1040CDCF800C0CCF3FF
:10110000881C07FB0CF4174F3F1F3F68C7F30147CC
:101110007F1C7D00B4FBF5F7076002E0124F07600B
:1011200000BF00BF0F4F3F6807F0F0010909104FE3
:101130007A5C0768D74047600A4F3F6807F4E05180
:10114000890A0B4F7A5C4768D7408760054F3F6834
:1011500007F46041490B064F7A5C4768D740C76087
:10116000F0BD0000083802400024F40000127A00AC
:101170002C01002010B504462648007820B1012833
:1011800028D0022843D13CE00020234908709FED7D
:10119000230A234880ED000A224890ED000AF8EE69
:1011A000C00A9FED210AFFF7E3FC204880ED000A0A
:1011B0001C490968A1F5D0500438002801DB01461C
:1011C00000E04142852904DA0120124908701848DC
:1011D00004601CE09FED110A144880ED000A042110
:1011E0001448FFF791FC12480068201AB0F5FA7F06
:1011F00006D904210F48FFF784FC02200549087036
:1012000005E09FED060A094880ED000A00BF00BF17
:1012100010BD0000E10000202C00002000000000B4
:1012200014000020280000200020D04524000020C9
:10123000E40000200004024010B52DED068B0446AA
:101240009FEDC00AB0EE408ABF48007809282BD233
:10125000DFE800F0052B4774D3FDF2F1F000002029
:10126000BA4908709FEDB70AB94880ED000AB9483D
:1012700090ED000AF8EEC00A9FEDB70AFFF778FC80
:10128000B64880ED000AB3490968A1F5D05004388A
:10129000002801DB014600E04142852904DA0120F3
:1012A000A9490870AE48046048E19FEDA60AAB4822
:1012B00080ED000A0421AB48FFF726FCA84800682F
:1012C000201AB0F5FA7F0BD90421A648FFF719FCC4
:1012D0000020A04908609C480078401C9A4908708A
:1012E0002CE10120994908709F4890ED000A984828
:1012F00080ED000AB1EE080A984880ED000A954892
:10130000006841F69E41884217DB974890ED000A3D
:10131000DFED960AB4EEE00AF1EE10FA08DA90ED8D
:10132000000ADFED930AB4EEE00AF1EE10FA04D8F9
:101330000320854908708A480460FFE00020834943
:101340000870B1EE000A854880ED000A9FED890A19
:101350007F4880ED000A18EE100AFEF733FF41ECDB
:101360001A0BB0EE4A0AF0EE6A0A01F017FCB0EE72
:10137000409AF0EE609A9FED800B53EC102B51ECED
:10138000190BFEF74BFF01D27D4804607C480068D2
:10139000201A962830D39FED6B0A7A4880ED000A18
:1013A0006B4890ED000A7048D0ED000A30EE600AFC
:1013B000B0EE408A05E09FED740A38EE400AB0EEC8
:1013C000408A9FED720AB4EEC08AF1EE10FAF2DCA8
:1013D00005E09FED6D0A38EE000AB0EE408A9FED01
:1013E000650AB4EEC08AF1EE10FAF2D30020594932
:1013F0000860042054490870A0E000205349087098
:101400009FED5C0A524880ED000A524890ED000AB8
:10141000F8EEC00A9FED500AFFF7AAFB4F4880ED97
:10142000000A4C490968A1F5D0500438002805DBB2
:10143000014604E079E059E025E008E041428529D1
:1014400004DA0520404908704548046076E09FEDC5
:101450003D0A424880ED000A04214248FFF754FB50
:101460003F480068201AB0F5FA7F0BD904213D48A7
:10147000FFF747FB00203749086033480078401CDD
:10148000314908705AE0012030490870364890ED23
:10149000000A2F4880ED000AB1EE080A2F4880EDBF
:1014A000000A2C48006841F69E4188421DDB2E4808
:1014B0000068FEF787FE41EC1A0BB0EE4A0AF0EE28
:1014C0006A0A01F06BFBB0EE409AF0EE609A9FED75
:1014D000300B53EC102B51EC190BFEF787FE04D8A0
:1014E0000720194908701E48046027E000201749AA
:1014F00008709FED140A194880ED000A042119486C
:10150000FFF702FB16480068201AB0F5FA7F0BD9E6
:1015100004211448FFF7F5FA9FED0A0A0C4880ED04
:10152000000A08200849087008E09FED060A0B48E9
:1015300080ED000A00200549087000BF00BFBDEC27
:10154000068B10BD00000000E80000202C000020E9
:1015500014000020280000200020D0452400002096
:10156000EC000020000402401401002000000C43A5
:1015700000000CC3000034C3000000000000044061
:10158000F0000020200000200000B443000034439D
:10159000000000000000244010B52DED068B04462D
:1015A0009FEDAA0AB0EE408AA948007809282BD2FC
:1015B000DFE800F0052B4A64C2E8FEFDFC000020D5
:1015C000A44908709FEDA40AA44880ED000AA4482D
:1015D00090ED000AF8EEC00A9FEDA20AFFF7C8FAE4
:1015E000A14880ED000A9E490968A1F504504C38D5
:1015F000002801DB014600E04142852904DA012090
:1016000093490870994804601CE19FED900A964840
:1016100080ED000A04219648FFF776FA00208D49F4
:10162000087092480068201AB0F5FA7F0BD904219F
:101630008F48FFF766FA00208949086084480078DF
:10164000401C83490870FDE00120824908708948E8
:1016500090ED000A814880ED000AB1EE060A82484A
:1016600080ED000A7E48006842F2AC01884204DB4B
:101670000320774908707D480460E3E00020754945
:1016800008709FED720A784880ED000A9FED7A0A93
:10169000724880ED000A774890ED000ADFED760A87
:1016A00030EEC00AB0EE408A05E09FED740A38EED5
:1016B000400AB0EE408A9FED720AB4EEC08AF1EEA5
:1016C00010FAF2DC05E09FED6D0A38EE000AB0EE8C
:1016D000408A9FED690AB4EEC08AF1EE10FAF2D3A7
:1016E00018EE100AFEF76EFD41EC1A0BB0EE4A0A36
:1016F000F0EE6A0A01F052FAB0EE409AF0EE609A0B
:101700009FED600B53EC102B51EC190BFEF786FD8F
:1017100001D25E4804605D480068201A96280AD30A
:101720009FED4A0A5A4880ED000A00204C490860A3
:1017300004204749087085E00020464908709FED65
:10174000550A464880ED000A454890ED000AF8EE3B
:10175000C00A9FED440AFFF70BFA434880ED000AE8
:101760003F490968A1F504504C38002801DB0146C7
:1017700000E04142852904DA0520354908703B48DC
:1017800004605FE09FED310A374880ED000A0421D4
:101790003748FFF7B9F900202E4908703348006830
:1017A000201AB0F5FA7F0FD9042102E041E026E0CB
:1017B0000BE02F48FFF7A5F90020294908602448CD
:1017C0000078401C224908703CE001202149087043
:1017D000284890ED000A214880ED000AB1EE060A83
:1017E000214880ED000A1E48006842F2AC018842A0
:1017F00004DB0720164908701C48046022E0002022
:10180000144908709FED110A174880ED000A042161
:101810001748FFF779F915480068201AB0F5FA7FE4
:1018200006D904211248FFF76CF90820084908700E
:1018300008E09FED060A0C4880ED000A00200549EB
:10184000087000BF00BFBDEC068B10BD000000009B
:10185000F40000202C00002066661A4214000020CC
:10186000280000200030054624000020F800002059
:101870000004024014010020000034C30000B443FF
:10188000000034430000000000000440FC00002081
:101890002000002066661AC210B52DED068B0446A6
:1018A0009FEDB20AB0EE408AB148007809282BD2E9
:1018B000DFE800F0052B4A64C2E8FEFDFC000020D2
:1018C000AC4908709FEDAC0AAC4880ED000AAC480A
:1018D00090ED000AF8EEC00A9FEDAA0AFFF748F95A
:1018E000A94880ED000AA6490968A1F504504C38C2
:1018F000002801DB014600E04142852904DA01208D
:101900009B490870A14804602BE19FED980A9E480E
:1019100080ED000A04219E48FFF7F6F80020954963
:1019200008709A480068201AB0F5FA7F0BD9042194
:101930009748FFF7E6F80020914908608C48007846
:10194000401C8B4908700CE101208A4908709148BD
:1019500090ED000A894880ED000AB1EE060A8A4837
:1019600080ED000A8648006842F2AC01884204DB40
:1019700003207F49087085480460F2E000207D491B
:1019800008709FED7A0A804880ED000A9FED820A78
:101990007A4880ED000A7F4890ED000ADFED7E0A6C
:1019A00030EEC00AB0EE408A05E09FED7C0A38EECA
:1019B000400AB0EE408A9FED7A0AB4EEC08AF1EE9A
:1019C00010FAF2DC05E09FED750A38EE000AB0EE81
:1019D000408A9FED710AB4EEC08AF1EE10FAF2D39C
:1019E00018EE100AFEF7EEFB41EC1A0BB0EE4A0AB5
:1019F000F0EE6A0A01F0D2F8B0EE409AF0EE609A8A
:101A00009FED680B53EC102B51EC190BFEF706FC05
:101A100001D26648046065480068201A96280AD3F7
:101A20009FED520A624880ED000A00205449086088
:101A300004204F49087094E000204E4908709FED43
:101A40005D0A4E4880ED000A4D4890ED000AF8EE20
:101A5000C00A9FED4C0AFFF78BF84B4880ED000A57
:101A600047490968A1F504504C38002801DB0146BC
:101A700000E04142852904DA05203D4908704348C9
:101A800004606EE09FED390A3F4880ED000A0421B2
:101A90003F48FFF739F80020364908703B48006896
:101AA000201AB0F5FA7F0FD9042102E050E026E0B9
:101AB0000BE03748FFF725F80020314908602C4833
:101AC0000078401C2A4908704BE001202949087021
:101AD000304890ED000A294880ED000AB1EE060A70
:101AE000294880ED000A2648006842F2AC0188428D
:101AF00004DB07201E4908702448046031E0002000
:101B00001C4908709FED190A1F4880ED000A042146
:101B10001F48FEF7F9FF1D480068201AB0F5FA7F4C
:101B200015D904211A48FEF7ECFF23480078401C21
:101B30002149087008460078042805DA00200C497D
:101B400008700F49086002E008200949087008E0A1
:101B50009FED060A0C4880ED000A00200549087038
:101B600000BF00BFBDEC068B10BD000000000000F0
:101B7000000100202C00002066661A42140000209C
:101B80002800002000300546240000200401002029
:101B90000004024014010020000034C30000B443DC
:101BA0000000344300000000000004400801002051
:101BB0002000002066661AC20C0100207047000059
:101BC0000CB50020019000903448006840F480304B
:101BD0003249086000BF3148006800F400300090CE
:101BE0000198401C0190009818B90198B0F5A04FD9
:101BF000F1D12A48006800F4003010B101200090B3
:101C000001E0002000900098012846D12348403090
:101C1000006840F080502149403108602048006849
:101C200040F440401E4908601C48083000681B49C9
:101C3000083108600846006840F400400860084623
:101C4000006840F4A05008601648091F0860081F8B
:101C5000006840F08070091F086000BF0F480068EE
:101C600000F000700028F9D040F205700E490860BD
:101C70000A480830006820F003000849083108606D
:101C80000846006840F00200086000BF03480830C2
:101C9000006800F00C000828F8D10CBD00380240A4
:101CA0000070004008544007003C0240042808D15E
:101CB0004FF0E021096941F004014FF0E022116189
:101CC00007E04FF0E021096921F004014FF0E02224
:101CD0001161704702480068401C01490860704764
:101CE0002801002010B51548006840F47000134921
:101CF00008601348006840F00100114908600020A6
:101D00000F49083108600E4800680E4908400C4928
:101D100008600D48091D0860081F006820F4802035
:101D2000091F0860002006490C310860FFF748FFD2
:101D30004FF0006001498039086010BD88ED00E077
:101D400000380240FFFFF6FE1030002430B58BB0A3
:101D500004460D4601210220FFF758F90121022017
:101D6000FFF744F92020099002208DF82800032075
:101D70008DF8290000208DF82A0001208DF82B0015
:101D800009A92248FEF752FE022205211F48FEF74C
:101D900095FE1020099009A91C48FEF747FE022273
:101DA00004211A48FEF78AFE681E0790601E80B262
:101DB000ADF818000020ADF82000ADF81A0006A913
:101DC000134800F035F96020ADF804000120ADF8AB
:101DD00006000020ADF8100001A90D4800F07AF8C7
:101DE00001A90B4800F0BEF80821094800F0B0F83E
:101DF0000821074800F008F90121054800F020F803
:101E0000FEF7D8FCFEF75EFD0BB030BD00040240CB
:101E10000004004010B50121054800F041F80128F8
:101E200005D1FEF7DBFE0121014800F006F810BDE8
:101E300000000140CA4302827047CA4302827047D1
:101E400021B1028842F00102028004E002884FF6CC
:101E5000FE731A4002807047F0B50C4615461E46C8
:101E60000021002200230189028B038C4FF6F877B2
:101E7000394021434FF6FC473A4040F201173A43BC
:101E80004FF6DD773B404FF6FF7707EA06172F4303
:101E90003B43018102830384F0BD0146486A7047D9
:101EA00030B50246002000230024158A05EA01030C
:101EB000958905EA010413B10CB1012000E000206E
:101EC00030BD1AB183890B43838102E083898B4340
:101ED0008381704770B5002400220023058C4FF6E3
:101EE000FE7635400584028C8388048B4FF68F750F
:101EF0002C40B51E2C400D882C43751E2A408D8920
:101F00002A434D882A43104DA84202D00F4DA842C3
:101F100013D14FF6F7752A40CD892A434FF6FB754A
:101F20002A408D882A434FF6FF652B404FF6FF5518
:101F30002B400D8A2B434D8A2B43838004838D686D
:101F40004563028470BD00000000014000040140B0
:101F50000A460021018B4FF6F773194011430183A4
:101F60007047000070B5002400220023058C4FF656
:101F7000EF7635400584028C8388048B48F6FF7524
:101F80002C404FF6FF452C400D884FF6FF7606EAB1
:101F900005252C434FF6DF752A408D8906EA051585
:101FA0002A434D8806EA05152A43154DA84202D05A
:101FB000144DA8421DD14FF67F752A40CD894FF6AA
:101FC000FF7606EA05152A434FF6BF752A408D882D
:101FD00006EA05152A434FF6FF352B404FF2FF75F1
:101FE0002B400D8A06EA85052B434D8A06EA8505B6
:101FF0002B43838004838D688563028470BD000059
:1020000000000140000401400A460021018B4FF20C
:10201000FF7319404FF6FF7303EA0223194301834C
:1020200070474163704781637047416270470000A9
:1020300000220288184B98420ED0184B98420BD0C1
:10204000B0F1804F08D0164B984205D0154B9842FE
:1020500002D0154B984204D14FF68F731A404B882B
:102060001A43124B984207D0114B984204D04FF6B6
:10207000FF431A400B891A4302804B68C3620B88E6
:102080000385054B984202D0044B984201D18B7ACC
:102090000386012383827047000001400004014051
:1020A0000004004000080040000C00400010004008
:1020B000001400401FB501210846FEF7C7FF0020AD
:1020C000ADF80C00ADF8060040F2E730029040F2A7
:1020D0008F60ADF8040000208DF80E0001A91048B3
:1020E000FFF7A6FF01210E48FFF7A4FE01221146CB
:1020F0000B48FFF7E6FE19208DF8000001208DF84F
:10210000030002208DF8010000208DF802006846CF
:10211000FEF78CFE01210248FFF792FE1FBD000072
:102120000000014010B540F22551054800F0C9F902
:10213000012804D140F22551014800F022F910BDD8
:102140000010014010B52DED088B40F225515C4880
:1021500000F0B7F900287DD0594800F06BFAC4B2FE
:102160005848007870B9552C08D156480178007845
:10217000401C544A10705448445499E0002051497E
:10218000087095E04F48007801280ED1532C08D1F3
:102190004C4801780078401C4A4A10704A48445420
:1021A00086E000204749087082E0464801780078C0
:1021B000401C444A107044484454104600780B2890
:1021C00076D1414880794049C97940EA012000B27E
:1021D00008EE100AB8EEC80A9FED3C1AC0EE010ADC
:1021E0009FED3B0A20EE800AF0EE40AA9FED390AEF
:1021F0002AEE800ADFED360A80EE201AF0EE418AE0
:102200003548007828B93548C0ED008A01203249A8
:102210000870B0EE680A00F0CBFCB0EE40BA2F4870
:1022200090ED000A00F012FC6BEE00BAB0EE680A06
:1022300000F00CFCB0EE40BA284890ED000A00F027
:10224000B7FCB0EE6B9A0BEE409AB0EE680A00F065
:10225000FDFB00E031E0B0EE40BA204890ED000A0E
:1022600000F0F4FB6BEE00BAB0EE680A00F0A0FCE0
:10227000B0EE40BA194890ED000A00F099FCB0EEBB
:102280006BAA0BEE00AAF0EE4A0AB0EE490A00F083
:1022900087FADFED0F0A20EE200ADFED0E0AC0EE0E
:1022A000209A0F48C0ED009A00200649087000BF30
:1022B00040F22551024800F064F8BDEC088B10BDD7
:1022C0000044004018010020900100200000004759
:1022D00000003443DB0F4940190100201C0100209D
:1022E0001401002010B540F225511E4800F0E9F815
:1022F000002836D01B4800F09DF9C4B21A48007877
:1023000050B9AA2C08D1184801780078401C164A08
:102310001070164844541FE013480078002818DD58
:10232000114801780078401C0F4A10700F4844543F
:102330001046007804280FDB0C48C078552804D1DB
:1023400010460178094800F0E1F9002006490870BC
:1023500002E000200449087040F22551014800F0D5
:1023600010F810BD0048004024010020200100208A
:1023700001F40072B2F5007F00D100BFCA430280B1
:10238000704710B50022002340F66A14A14200D124
:1023900000BF0A1201249440A3B2DC43048010BDA4
:1023A00021B1828942F40052828104E082894DF693
:1023B000FF731A408281704710B504463248844248
:1023C00008D101211020FEF751FE00211020FEF758
:1023D0004DFE57E02D48844209D101214804FEF703
:1023E00025FE00214FF40030FEF720FE4AE0284889
:1023F000844209D101218804FEF718FE00214FF420
:102400008020FEF713FE3DE02248844209D10121DD
:10241000C804FEF70BFE00214FF40020FEF706FE75
:1024200030E01D48844209D101210805FEF7FEFD78
:1024300000214FF48010FEF7F9FD23E01748844295
:1024400008D101212020FEF711FE00212020FEF7F7
:102450000DFE17E01248844209D101218807FEF7DA
:10246000E5FD00214FF08040FEF7E0FD0AE00D4859
:10247000844207D101214005FEF7D8FD0021600507
:10248000FEF7D4FD10BD00000010014000440040E4
:1024900000480040004C0040005000400014014043
:1024A00000780040007C004002460020B1F5007F2B
:1024B00000D100BF13880B400BB1012000E00020C9
:1024C000704770B50246002400230025002040F626
:1024D0006A16B14200D100BFC1F3421501F01F03DB
:1024E000012606FA03F3012D02D19689334006E056
:1024F000022D02D1168A334001E0968A33400C1235
:10250000012606FA04F41688344013B10CB10120F8
:1025100000E0002070BDF0B5034600240026002531
:10252000002040F66A17B94200D100BF1846C1F337
:10253000421401F01F06012707FA06F5012C01D10C
:102540000C3004E0022C01D1103000E014301AB13C
:1025500007682F43076002E00768AF430760F0BDDC
:102560002DE9FF4705460E460024A14600BFA046C0
:10257000B08900B100BF2C8A24F44054F088044391
:102580002C82AC8941F20C608443B08831890843C5
:10259000718908430443AC81AC8A24F44074B08947
:1025A0000443AC826846FEF771FD2048854202D0A4
:1025B0001F48854202D1DDF80C9001E0DDF808905B
:1025C000A88900F4004040B109EBC90000EB0910F4
:1025D00031684900B0FBF1F707E009EBC90000EBF7
:1025E000091031688900B0FBF1F76420B7FBF0F007
:1025F00004012009642101FB1078A88900F400403F
:1026000040B1322000EBC800B0FBF1F000F0070051
:10261000044308E0322000EB08106421B0FBF1F025
:1026200000F00F0004432C81BDE8FF87001001403B
:102630000014014001468888C0F308007047C1F3C8
:102640000802828070474FF416510160002181809A
:10265000C18001810C21418100218181704700BF2F
:10266000FEE7000010B501F009F905498968401A34
:10267000C82803D900200249087110BD0120FCE7D9
:1026800044010020F0EE400A9FED1E1A1E4880ED26
:10269000001A90ED001A31EE601A80ED041A90EDE8
:1026A000011AD0ED041A21EE211AD0ED041A90ED92
:1026B000052A71EEC21A90ED032A02EE211AB0EE3D
:1026C000410A90ED061AB4EEC01AF1EE10FA03D2E8
:1026D00090ED061AB0EE410A0B4890ED061AB1EEE5
:1026E000411AB4EEC01AF1EE10FA05DD90ED061AAB
:1026F000B1EE411AB0EE410A034890ED041A80EDA4
:10270000051A704700000000C400002070B52DEDD0
:10271000028B04460D46042D19DB2078AA2816D119
:10272000E078552813D1A078617840EA012000B202
:1027300008EE100AB8EEC80A064880ED000A01202B
:102740000449087101F09AF80249886000BFBDECA5
:10275000028B70BD440100200FB4054B10B503A9D6
:10276000044A029800F084FC10BC5DF814FB0000E1
:10277000593800083C0100204100080218BF04201D
:102780000A0E18BF40F001004FF07F4232EA01010B
:1027900008BF40F00200012808BF05207047000074
:1027A00070B54FF068422DED048BF0EE408A18EEC4
:1027B000900AB0EE608A18EE101A02EB4003B3F1F3
:1027C000654F3CBF02EB4102B2F1654F7DD200BFC5
:1027D000C0F3C753C1F3C7529A1A1B2A09DD10F080
:1027E000004F14BF9FED830A9FED830ABDEC048B5D
:1027F00070BD12F11A0F36DA11F0004F09D010F047
:10280000004F0CBF9FED7D0A9FED7D0ABDEC048B50
:1028100070BD88EE889A19EE100AFFF7ADFF042804
:1028200008BF00F09BFA18EE900AFFF7A5FF0546D7
:1028300018EE100AFFF7A0FF044619EE100AFFF782
:102840009BFF042D18BF052D08D1042C18BF052CA3
:1028500004D1002804BF022000F042FBB0EE490A78
:10286000BDEC048B70BD4200B2EB410F3AD910F0C1
:10287000004F19BFDFED630A9FED630ADFED630AC6
:102880009FED630AB0EE481A0A46B1EE688A80F0FE
:102890000041F0EE418A10460A1A5200B2F1807FE0
:1028A00034D2484010F0004FDFED5A1A9FED5A2AFB
:1028B0001DBFBEEE001A70EEE10A30EE420AB6EE1F
:1028C000001A08BF70EEA10A00E040E008BF30EE39
:1028D000020AB0EE682A01EE482A08EE818AC2EEAA
:1028E000081A15E011F0004F04BF9FED4C0AF0EEFE
:1028F000400AD1D010F0004F19BFDFED490A9FED1B
:10290000490ADFED490A9FED490AC5E7C8EE881A72
:1029100021EEA11A9FED462ADFED462A41EE022A5A
:102920009FED452A01EE222ADFED442A41EE022ADC
:102930009FED432ABDEC048B01EE222A21EE811A81
:1029400001EE020A30EE210A30EE200A70BD4FF08F
:102950007F42B2EB400F28BFB2EB410F09D2F0EE3D
:10296000480AB0EE680ABDEC048BBDE8704000F088
:10297000EAB940EA01035B0008BF41F0FF410BD018
:10298000B2EB400F08BFB2EB410F08D120F08040FE
:1029900008EE900A21F0804108EE101A18E7B2EB19
:1029A000400F12BF5FEA410340F0FF4001F00041D9
:1029B0003FF40EAFB2EB410F12BF5FEA400200F0EE
:1029C000004041F0FF413FF403AF4A0092EA400368
:1029D0003FF5FEAE002AACBF9FED1A0A9FED1A0A22
:1029E00068EE808A28EE008A18EE900A18EE101A17
:1029F000EEE60000DB0FC9BFDB0FC93FDB0F49402C
:102A0000DB0F49C00000C9BF22AAFDB90000C93FC1
:102A100022AAFD390060ED3EC30ACE370000000057
:102A2000000049C022AA7DBA0000494022AA7D3A8E
:102A30002DAD65BD8FB8D53D0FB511BE61C84C3EFB
:102A4000A8AAAABE0000804F0000802F10EE101A26
:102A500008B5444A6846B2EB410F28D94FF0E6402A
:102A6000B0EB410F94BF00204FF0FF300090009872
:102A7000002861DB60EE000A10F0010F45D010F075
:102A8000020FDFED391A9FED391A00EEE11ADFED82
:102A9000381A40EE811A21EEA01AF0EE400A40EEFC
:102AA000010A08BFF1EE600AB0EE600A08BD314BC2
:102AB00021F0004293423CD911F0004FDFED2E0A85
:102AC00020EE201ADFED2D0A19BF31EE601A71EEEB
:102AD000200A31EE201A71EE600ABDEEE01A11EE06
:102AE000100A9FED271A00F0030000EEC10A9FEDC7
:102AF000251A009000EEC10A9FED231A00EEC10ACC
:102B00009FED221A00EEC10AB1E79FED211A9FED59
:102B1000210A10F0020F00EE810A9FED1F1A00EE4D
:102B2000801AB7EE000A00EE810A18BFB1EE400A23
:102B300008BD00F01BF99AE710EE100A4000B0F152
:102B40007F4F3CBFB7EE000A08BD07D14FF0010030
:102B500000F0C6F9BDE8084000F0F8B8BDE808404C
:102B600000F0EEB8B61F927E336D4C39DA82083C25
:102B7000A0AA2ABE490E494683F9223F0000004B15
:102B80000000C93F00A0FD390020A2331A61342C97
:102B9000B93AB2BACA9F2A3DDDFFFFBE2DED020B46
:102BA000019820F0004001909DED000B02B07047AD
:102BB00000B510EE101A2DED028B81B0524A684616
:102BC000B2EB410F2ED94FF0E640B0EB410F94BF6E
:102BD00000204FF0FF3000900098B0EE408A0028AF
:102BE0006ADB10F0010F4BD068EE080A9FED471A20
:102BF0009FED470A00EE810A9FED461A10F0020F82
:102C000000EE801AB7EE000A00EE810A02BF01B0A2
:102C1000BDEC028B00BD00BF01B0B1EE400ABDECBF
:102C2000028B00BD3C4B21F00042934241D911F090
:102C3000004FDFED3A0A20EE201ADFED390A19BF06
:102C400031EE601A71EE200A31EE201A71EE600A40
:102C5000BDEEE01A11EE100A9FED321A00F00300EB
:102C600000EEC10A9FED301A009000EEC10A9FED00
:102C70002F1A00EEC10A9FED2E1A00EEC10AABE733
:102C800028EE080A9FED2B1ADFED2B0A10F0020F39
:102C900040EE410A9FED291A00EE201A61EE000A6B
:102CA000B0EE480A08EE200AB6D101B0BDEC028BA6
:102CB00000BD00F05BF88FE718EE100A4000B0F19D
:102CC0007F4F0DD218EE100AFFF756FD042808BFFB
:102CD00000F044F8B0EE480A01B0BDEC028B00BD34
:102CE00009D1012000F0FCF801B0BDEC028B5DF8C9
:102CF00004EB00F02BB801B0B0EE480ABDEC028B3B
:102D00005DF804EB00F01CB8B61F927EB93AB2BA77
:102D1000CA9F2A3DDDFFFFBE490E494683F9223F87
:102D20000000004B0000C93F00A0FD390020A23385
:102D30001A61342C336D4C39DA82083CA0AA2ABEC1
:102D400030EE000A704730EE200A7047DFED020ACD
:102D500080EEA00A70470000000000009FED020A0C
:102D600020EE000A70470000000000102DE9F0017D
:102D70004FF07F42B2EB410F9FBF4FF0FF31016038
:102D8000BDE8F00170474FF0004242EA0123C1F371
:102D9000C752783A551112F01F0C434CCCF1200663
:102DA0007C44C1F3C752A2F178024FEA621204EBED
:102DB000820254F8254008BFD2E9015612D0556866
:102DC00004FA0CF425FA06F73C43976805FA0CF56B
:102DD00027FA06F8D26807FA0CFCF24045EA080523
:102DE0004CEA0206A4FB034CA5FB0352A6FB0363BB
:102DF0001D449D4234BF012600261319334416B1E9
:102E0000934202D903E0934201D2012200E0002262
:102E1000624402F1200C9206DC0C42EA443200EEDD
:102E2000102A5B03DFED210AF8EEC01A00EE103A1B
:102E30004FEA9C1C11F0004FB8EE400AC0F800C0E9
:102E400020EE201A00EE105ADFED190AB8EE400A03
:102E500020EE200A71EE810A70EE800A10EE902AB0
:102E600002F500626FF30B0200EE902A70EEE11A99
:102E700031EEC11ADFED101A30EE411A9FED0D0A46
:102E800020EE800A01EE210A9FED0C1A00EE810A65
:102E900004BFBDE8F0017047CCF180510160BDE88E
:102EA000F001B1EE400A7047680E000000000036E5
:102EB0000000802C22AAFD29DB0FC92F0000C92F9A
:102EC00002E008C8121F08C1002AFAD170477047F3
:102ED000002001E001C1121F002AFBD17047000051
:102EE0000149086070470000400100202DE9FF5FA4
:102EF00082B00021DDE90430020DDDF840B003436B
:102F000018D044F61050A2F2FF3242431514119823
:102F100001281FD0A5EB0B00401C5FEA000A4FF010
:102F200000064E4FDFF83891B046504615D5CAF12D
:102F3000000413E0119801244AA3012801D16FEA8B
:102F40000B010298119AC0E90031C0E9024206B0B3
:102F5000BDE8F09FCBF10000DFE704460021404AC6
:102F6000491842EB0450CDE9001012E0E00707D009
:102F700032463B4640464946FDF756FA804689466A
:102F800032463B4610461946FDF74EFA06460F46B6
:102F90006410002CEAD1DDE90401DDE90023BAF177
:102FA000000F06DAFDF740FA42464B46FDF73CFAC1
:102FB00005E0FDF7ABFA42464B46FDF7A7FA04469B
:102FC0000E460022284BFDF729F903D84FF0FF30B9
:102FD000014607E00022254B20463146FDF77DF9EA
:102FE000FDF703FB102409E0002C0ADB0A22002372
:102FF000FDF742F9039B30321A55641E50EA010274
:10300000F2D1641C039AC4F111031444119A012AE9
:1030100003D0012208430DD10AE0084304D0002068
:103020004FF0110B119072E7A3EB0B056D1E0DE035
:103030005B4504DD4FF0000205F1010504E003DA11
:103040004FF00002A5F10105002AECD00298119979
:10305000C0E90231C0E9004579E7000000001440F2
:103060000000F03F300000000000F0430000E03FAF
:103070002DE9FF4F95B09A46884606460025EEE1B9
:10308000252877D100242746F94A0121039400E03E
:10309000044316F8013F203B01FA03F01042F7D138
:1030A00030782A2811D06FF02F033078A0F1300249
:1030B000092A16D8039A44F0020402EB820203EBB9
:1030C00042021044761C0390EFE758F8042B039259
:1030D000002A03DA504244F40054039044F00204FE
:1030E000761C30782E2816D116F8010F44F004040F
:1030F0002A280DD06FF02F023078A0F13003092B71
:1031000009D807EB870302EB4303C718761CF3E7E4
:1031100058F8047B761C30786C280FD006DC4C28DD
:1031200017D068280DD06A2814D104E0742810D074
:103130007A280FD10DE044F400140AE044F480141E
:1031400001E044F440147278824202D104F5801404
:10315000761C761C307866280BD013DC582877D084
:1031600009DC002875D04528F6D04628F4D0472839
:103170001AD193E118E0632835D0642879D0652806
:1031800012D18BE1702873D008DC6728F1D0692850
:103190006FD06E280DD06F2806D1ACE073282CD0EC
:1031A000752874D0782853D05246179990476D1CD3
:1031B00054E1C4F30250022809D003280DD0D8F8F6
:1031C000001004280DD00D6008F1040846E1D8F87D
:1031D0000010EA17C1E90052F6E7D8F800100D8098
:1031E000F2E70D70F0E718F8041B8DF800100020CE
:1031F0008DF80100EB46012003E058F804BB4FF0C6
:10320000FF3061074FF0000102D40DE009F1010128
:103210008946B9420FDA8145F8DB1BF8091000290D
:10322000F4D108E009F1010189468142FADB1BF87B
:1032300009100029F6D103985346A0EB090721464F
:103240003846179A00F080FA284400EB090507E099
:1032500044E008E10DE01BF8010B52461799904736
:10326000B9F10109F7D2534621463846179AF2E0E0
:1032700039E00A21C4F302524FF0000B0091022AF8
:1032800006D058F8040BC117032A09D00AE023E03E
:1032900008F1070020F00702F2E80201904605E07D
:1032A00000B2C117042A01D140B2C117002906DAC1
:1032B0000A460021404261EB02012D2202E0220574
:1032C00004D52B228DF80420012203E0E20701D06F
:1032D0002022F7E7914657E00A2100E010214FF045
:1032E000000B00910BE010214FF0000B44F00404A0
:1032F0000827009103E008204FF0000B0090C4F372
:103300000252022A05D058F8040B0021032A08D0E3
:1033100008E008F1070020F00702F2E802019046F9
:1033200003E080B2042A00D1C0B24FF000092207A6
:103330002AD53278702A07D0DDF800C08CF0100C46
:103340005CEA0B0C05D00EE040228DF8042001222F
:1033500008E050EA010306D030238DF804308DF8E0
:10336000052002229146009B83F0080353EA0B03D9
:103370000AD150EA010201D1620705D530228DF849
:1033800004204FF001097F1E3278582A04D039A258
:103390000C920CAA02920BE03BA2F9E75B46009A62
:1033A000FCF76AFF0C9B9B5C029A521E0292137000
:1033B00050EA0102F2D1029804A9081A00F1200B88
:1033C000600702D524F4803400E001275F4502DD68
:1033D000A7EB0B0000E0002000EB0B01009003982E
:1033E0004944401A0390E00306D453462146179AF5
:1033F000039800F0A9F90544002706E001A8524609
:10340000C05D179990476D1C7F1C4F45F6DBE003AC
:103410000CD553462146179A039800F095F90544B8
:1034200004E030205246179990476D1C0099481EC1
:1034300000900029F5DC08E00298029952460078D5
:10344000491C0291179990476D1CBBF10001ABF12B
:10345000010BF1DC5BE100F065F90544761C307886
:1034600000287FF40DAE19B02846BDE8F08F0000AB
:10347000092801003031323334353637383961624A
:10348000636465660000000030313233343536370E
:10349000383941424344454600000000600700D4EB
:1034A000062708F1070020F00700F0E80223804615
:1034B00003F0004C5FEA0C0001D097A009E0200562
:1034C00001D596A005E0E00701D095A001E0AFF29C
:1034D0004C001390307823F0004365280CD006DCB4
:1034E000452809D046281DD047287FD13BE06628D3
:1034F00018D067287AD136E00021112F01DB112086
:1035000000E0781CCDE9000104A90CA8FFF7EEFC4F
:10351000DDE90D010C9A4FF0000B07F10109109243
:1035200000914EE04FF000400097CDE9011004A952
:103530000CA8FFF7DBFCDDE90D020C9B0F994FF0A7
:10354000000B91461093009211B9791C00EB010910
:10355000B7EB090003D4C0F1FF3B07F10109A9EB68
:103560000700019042E0012F00DA01270021112F0E
:1035700001DD112000E03846CDE9000104A90CA8C6
:10358000FFF7B4FCDDE90D010C9A00914FF0000B40
:10359000B946109221070FD4009A4A4503DA9146A2
:1035A00001E0A9F10109B9F1010F05DD109AA9F1B6
:1035B0000101515C3029F4D0B84202DA10F1040F55
:1035C00003DA0121CDE9011010E0002803DC834477
:1035D000A9EB000102E0411C494500DD8946A0EB52
:1035E0000B00401C01904FF000400290200705D4D2
:1035F0000198484502DB4FF0FF30019000208DF824
:103600004B0002980DF14B07B0F1004F25D002207E
:103610000C902B200D90029800280CDA404202906A
:103620002D200D9007E00A210298FCF70FFE3031A3
:10363000029007F8011D0C99481E0C900029F2DC3D
:1036400002980028EFD1791E0D980870307800F0AC
:10365000200040F0450007F8020D11A8C01BC01D56
:1036600002901398007800B1012000EB0901019845
:1036700001EBE071029801440398401A401E039048
:10368000E00306D453462146179A039800F05CF8ED
:1036900005441398007818B15246179990476D1C4D
:1036A000E00323D553462146179A039800F04CF8BF
:1036B00005441BE0BBF1000F07DB0098584504DD13
:1036C0001098179910F80B0001E017993020524616
:1036D000904701980BF1010B401E05F10105019087
:1036E00004D12E205246179990476D1CB9F1000164
:1036F000A9F10109DEDC05E017F8010B5246179924
:1037000090476D1C0299481E02900029F4DC534634
:103710002146179A03989EE62D0000002B0000001A
:10372000200000002DE9F041044600251E46174602
:10373000880404D405E039462020B0476D1C641E7F
:10374000F9D52846BDE8F0812DE9F0410446002571
:103750001E469046C80301D5302700E02027880484
:1037600004D505E041463846B0476D1C641EF9D5C6
:103770002846BDE8F081000070B54FF0006019499F
:1037800008600420FEF792FA174800684FF47A7236
:10379000B0FBF2F1481EB0F1807F01D301201CE0A4
:1037A000481E4FF0E022506150170F22002808DA1F
:1037B00013071D0E0B4B103300F00F04241F1D5573
:1037C00003E013071C0E094B1C5400BF00204FF0F0
:1037D000E022906107201061002008B100BFFEE7E1
:1037E00070BD000008ED00E00000002000E400E0F3
:1037F00010B504464FF47A7104FB01F000F002F8B2
:1038000010BD000070B503460022114D2D68114E09
:10381000B5FBF6F505FB03F44FF0E025A96913E0CD
:103820004FF0E025A86988420ED0884202D20D1AD6
:103830002A4405E04FF0E0256D692D1A0D442A4415
:103840000146A24200D300E0EAE700BF70BD0000DD
:103850000000002040420F0070B504460D46E1B262
:103860000548FEF7ECFE00BF80210348FEF71CFE72
:103870000028F9D0204670BD0010014001480068C2
:1038800070470000280100202DED048B84B04FF418
:10389000A060FDF707FBFFF76FFF4FF4E13000F08A
:1038A00095F84FF4E13000F00BF94FF4E13000F0FF
:1038B0005BF9FCF7BDFFFDF761F8FCF7F5FFFDF7DD
:1038C00037F9FCF7BDFF9FED270A274880ED000A76
:1038D000FEF7F0FB4FF4FA60FFF78AFF23A0FEF734
:1038E0003BFF02E03220FFF783FF284800790028E1
:1038F000F8D027A0FEF730FF2B4890ED000A2B48A8
:1039000080ED000A00202A4908602AE0FFF7B6FF90
:10391000044628480068201A642817D32548046004
:1039200011480068FCF74EFC41EC180B1E4800687B
:10393000FCF748FC41EC190B8DED028B1C4800682C
:1039400053EC192B00901CA0FEF706FF1E480068E0
:10395000201A142804D31C4804602046FCF776FF84
:1039600000BFD3E700000000240000205761697405
:10397000696E6720666F7220566973696F6E204D9D
:103980006F64756C652E2E2E0D0A00004401002018
:10399000566973696F6E204F6E6C696E65212047A2
:1039A0006F210D0A00000000140100201400002007
:1039B0002800002018000020252E31662C25642CBC
:1039C000252E31660D0A00001C00002010B588B0BD
:1039D000044601210846FDF709FB07220921364864
:1039E000FDF76CF807220A213348FDF767F806A8AF
:1039F000FDF78CF84FF40070069002208DF81C0043
:103A000003208DF81D0000208DF81E0001208DF888
:103A10001F0006A92848FDF709F806A8FDF776F863
:103A20004FF48060069002208DF81C0003208DF872
:103A30001D0000208DF81E0001208DF81F0006A932
:103A40001D48FCF7F3FF01211020FDF7FFFA1B488A
:103A5000FEF7B2FC02A8FEF7F6FD02940020ADF8D6
:103A60000C00ADF80E00ADF810000C20ADF81200FF
:103A70000020ADF8140002A91048FEF771FD2021C6
:103A80000E48FEF775FC012240F225510B48FEF767
:103A900042FD01210948FEF783FC25208DF8040032
:103AA00001208DF805008DF806008DF8070001A8AB
:103AB000FDF7BCF908B010BD000002400010014045
:103AC00010B588B0044601210846FDF78FFA0121A0
:103AD0004804FDF79BFA072202212148FCF7EEFF7C
:103AE000072203211E48FCF7E9FF0C200690022064
:103AF0008DF81C0003208DF81D0000208DF81E009D
:103B000001208DF81F0006A91548FCF78FFF02A8B9
:103B1000FEF799FD02940C20ADF8120002A911489D
:103B2000FEF71EFD20210F48FEF722FC012240F285
:103B300025510C48FEF7EFFC01210A48FEF730FC46
:103B400026208DF8040000208DF8050001208DF856
:103B500006008DF8070001A8FDF768F908B010BD50
:103B6000000002400044004010B588B00446012126
:103B70000220FDF73BFA01218804FDF747FA0722EE
:103B80000A212048FCF79AFF07220B211D48FCF769
:103B900095FF4FF44060069002208DF81C00032032
:103BA0008DF81D0000208DF81E0001208DF81F00EB
:103BB00006A91448FCF73AFF02A8FEF744FD029458
:103BC0000C20ADF8120002A90F48FEF7C9FC012233
:103BD00040F225510C48FEF79EFC01210A48FEF7F1
:103BE000DFFB27208DF8040001208DF80500002060
:103BF0008DF8060001208DF8070001A8FDF716F9E1
:103C000008B010BD00040240004800400000000061
:103C10006E83F9A22915444ED15727FCC0DD34F537
:103C2000999562DB4190433CAB6351FE4C3C0008EC
:103C300000000020440100005C0700089C3C0008D4
:103C4000440100205C040000D02E000811847A0397
:103C50000A0009220102030406070809071270413D
:103C60009A99993F13C8432C806D4420092C280A47
:103C700011C0244143FA430516CDCC4C3E830C427F
:103C80001924423DA50AD7A33C5AF060014A2D01F0
:0C3C900002030404850607080900000078
:040000050800018965
:00000001FF
