:020000040800F2
:10000000980500209D010008990E0008270B0008A4
:10001000690B00083D090008232B000800000000C0
:100020000000000000000000000000002D2000087B
:10003000410900080000000059100008452100088F
:10004000B7010008B7010008B7010008B7010008B0
:10005000B7010008B7010008B7010008B7010008A0
:10006000B7010008B7010008B7010008B701000890
:10007000B7010008B7010008B7010008B701000880
:10008000B7010008B7010008B7010008B701000870
:10009000B7010008B7010008B7010008B701000860
:1000A000B701000885220008B7010008B701000861
:1000B000B7010008B7010008B7010008B701000840
:1000C000B7010008B7010008B7010008B701000830
:1000D000B7010008E925000809260008A92700083B
:1000E000B7010008B7010008B7010008B701000810
:1000F000B7010008B7010008B7010008B701000800
:10010000B7010008B7010008B7010008B7010008EF
:10011000B7010008B7010008B7010008B7010008DF
:10012000B7010008B7010008B7010008B7010008CF
:10013000B7010008B7010008B7010008B7010008BF
:10014000B7010008B7010008B7010008B7010008AF
:10015000B7010008B7010008B7010008B70100089F
:10016000B7010008B7010008B7010008B70100088F
:10017000B7010008B7010008B7010008B70100087F
:10018000B7010008B7010008DFF80CD000F044FA0E
:1001900000480047193D00089805002006488047A0
:1001A00006480047FEE7FEE7FEE7FEE7FEE7FEE75C
:1001B000FEE7FEE7FEE7FEE755210008890100089B
:1001C00000F0004230F000400AD0C10D01F560712E
:1001D000C0F3160042EA0151C208400711437047BC
:1001E000002001467047000030B5041E71F1000484
:1001F00004DB4FF00044404264EB0101141E73F134
:10020000000405DB1C464FF00043524263EB04033D
:100210008B4208BF824230BD30B5041E71F100042C
:1002200004DB4FF00044404264EB0101141E73F103
:10023000000405DB1C464FF00043524263EB04030D
:10024000994208BF904230BD30B50B4601460020B0
:100250002022012409E021FA02F59D4205D303FA88
:1002600002F5491B04FA02F52844151EA2F1010209
:10027000F1DC30BD2DE9F05F0546002092469B463B
:1002800088460646814640241BE0284641464746AC
:10029000224600F0E2F953465A46C01A914110D363
:1002A00011461846224600F0C9F92D1A67EB0108DD
:1002B0004F4622460120002100F0C0F917EB00094B
:1002C0004E41201EA4F10104DFDC484631462A4697
:1002D0004346BDE8F09F2DE9FE4F804681EA0300CA
:1002E000C00F0C46009021F0004123F00045B8EB10
:1002F0000200A94105D24046214690461C460B46C5
:10030000024623F00040104347D0270DC7F30A00F0
:10031000C3F30A510290401A019040286BDAC3F3EC
:10032000130040F4801B0098924620B10023D2EBCA
:10033000030A63EB0B0B01985946C0F1400250468B
:1003400000F07CF906460D4650465946019A00F0E9
:1003500094F910EB08006141002487EA115284EA05
:10036000E7731A4340D0009A62B3019A012A4FEA18
:10037000075215DC001B61EB02014FF0004202EA5C
:100380000752CDE90042001C41F5801132462B4650
:1003900000F094F903B0BDE8F08F40462146F9E73C
:1003A000001B61EB0201001C41F5801300185B414A
:1003B0002018A2F5001747EB030140EAD570B619E3
:1003C0006D4111E06D084FEA360645EAC0754FEA07
:1003D0000752001B61EB0201001C41F58011490826
:1003E0004FEA30000019514132462B4603B0BDE8B8
:1003F000F04F00F054B90098012240000023D0EBE8
:10040000020263EBE073009821464FEAE074B8EB18
:10041000000061EB0401E9E783F000435BE781F052
:10042000004158E72DE9FE4F81EA030404F000443F
:1004300021F0004100944FF0000B23F0004350EAFC
:1004400001045ED052EA03045BD0C3F30A54C1F343
:100450000A552C44A4F2F3340194A0FB0254C1F3D6
:10046000130141F48011C3F3130343F4801301FB20
:10047000024400FB034E840A970A44EA815447EA87
:100480008357A4FB076802958D0A05FB07854FEA91
:10049000932C04FB0C542705029D4FEA065847EAAB
:1004A0001637B5EB08056EEB070C870E920E47EA80
:1004B000811742EA8312A7FB0201B6EB0B0164EB42
:1004C00000042B0D43EA0C335E1844EB1C50DA4653
:1004D0005146E7FB0201C5F313044FEA0B3343EA2D
:1004E00014534FEA0432019C43EA0603A4F10C04BE
:1004F0000294009CCDE900B400F0E0F803B0BDE840
:10050000F08F00200146F9E72DE9F04D81EA030460
:1005100004F0004B21F0004514464FF0000A23F090
:10052000004150EA050220D054EA01021DD0C5F373
:100530000A570246C5F31303C1F31300C1F30A5669
:1005400040F4801543F48013A7EB0608101BD64631
:1005500008F2FD3873EB050002D308F1010801E051
:1005600092185B41B8F1000F03DA00200146BDE8A4
:10057000F08D00204FF48011064684460EE0171BD4
:1005800073EB050705D3121B63EB050306434CEA27
:10059000010C49084FEA300092185B4150EA01070C
:1005A000EDD152EA030012D082EA040083EA050189
:1005B000084305D0101BAB4106D20122002306E000
:1005C00000224FF0004302E06FF0010253101AEBDB
:1005D00006004CEB085110EB0A0041EB0B01BDE8A3
:1005E000F04D00F05CB8C1F30A52C1F3130140F2C0
:1005F000FF3341F480119A4202DA0020014670472D
:1006000040F233439A42A2F2334202DC524200F0FB
:1006100024B800F013B80000064C074D06E0E0686F
:1006200040F0010394E8070098471034AC42F6D339
:10063000FFF7AEFDBC400008DC400008202A04DBC8
:10064000203A00FA02F1002070479140C2F12003E5
:1006500020FA03F3194390407047202A04DB203A24
:1006600021FA02F00021704721FA02F3D040C2F1D2
:1006700020029140084319467047202A06DBCB1719
:10068000203A41FA02F043EAE07306E041FA02F34D
:10069000D040C2F12002914008431946704710B57E
:1006A000141E73F1000408DA401C41F10001921895
:1006B0005B411A4301D120F0010010BD2DE9F04D3E
:1006C00092469B4611B1B1FA81F202E0B0FA80F293
:1006D00020329046FFF7B2FF04460F4640EA0A0078
:1006E00041EA0B0153465A46084313D0114653EAD8
:1006F000010019D0C8F140025046FFF7AEFF054691
:100700000E46504659464246FFF798FF084305D02B
:10071000012004E020463946BDE8F08D0020054365
:1007200046EAE0762C4337430A986305E40AA0EBD7
:1007300008000022FD0A44EA47540A3002D500208E
:100740000146E9E7010510196941DDE9084500198D
:100750006941BDE8F04DA2E770B58C1810F8015B57
:1007600015F0070301D110F8013B2A1106D110F84A
:10077000012B03E010F8016B01F8016B5B1EF9D14E
:100780002B0705D40023521E0DD401F8013BFAE7D4
:1007900010F8013BCB1A921C03E013F8015B01F83F
:1007A000015B521EF9D5A142D8D3002070BD0000D4
:1007B0001CB50121042000F051FC0620009001200E
:1007C0008DF8040000208DF8060003208DF8050048
:1007D00000208DF807006946014800F025F91CBD8E
:1007E0000008024070B504460D46012C0AD10022D3
:1007F00002210C4800F091F901220421094800F07F
:100800008CF909E001220221064800F086F9002255
:100810000421044800F081F92946034801F03BFE19
:1008200070BD0000000802400004004010B54FF405
:100830007A71A82001F0C2FC10BD0000032001491C
:1008400008707047E000002010B504461148007899
:1008500005281DD2DFE800F0030C101418009FEDEE
:100860000E0A0E4880ED000A00200D4908700FE0C6
:10087000204600F0B7FC0BE0204600F015FD07E035
:10088000204600F0C1FE03E0204601F03BF900BF26
:1008900000BF10BDE0000020000000002400002088
:1008A0002C0000209FED040A044880ED000A00207F
:1008B0000249087188607047000000004001002074
:1008C0001CB50121042000F0C9FB18200090012074
:1008D0008DF8040000208DF8060003208DF8050037
:1008E00000208DF807006946014800F09DF81CBD06
:1008F0000008024070B504460D46012C0AD10022C2
:1009000008210C4800F009F901221021094800F0E3
:1009100004F909E001220821064800F0FEF800224F
:100920001021044800F0F9F82946034801F0B1FD10
:1009300070BD0000000802400004004000BFFEE758
:10094000704710B54FF0804001F0DFFC04B2002189
:100950004FF0804001F0A1FD204610BD10B50548C4
:1009600001F0D3FC04B20021024801F096FD604280
:1009700000B210BD000800401CB50121032000F0AA
:100980006DFB0121052000F079FB0320009002207F
:100990008DF8040003208DF8050001208DF8070074
:1009A00069461E4800F040F8C020009069461C4887
:1009B00000F03AF801220021184800F07DF80122E9
:1009C0001146164800F078F802220621144800F07B
:1009D00073F802220721124800F06EF800231A462D
:1009E00003214FF0804001F06FFC00231A460321E1
:1009F0000C4801F069FC00214FF0804001F04DFDF2
:100A00000021084801F049FD0121880701F050FC50
:100A10000121044801F04CFC1CBD00000000024014
:100A20000004024000080040F0B50A4600210023FF
:100A3000002400BF3DE0012505FA01F3156805EA31
:100A400003049C4234D105684F000326BE40B543E1
:100A5000056015794E00B540066835430560157987
:100A6000012D02D01579022D16D185684F0003267D
:100A7000BE40B543856055794E00B5408668354324
:100A80008560456801268E40B54345604568967986
:100A90008E40B6B235434560C5684F000326BE4060
:100AA000B543C560D5794E00B540C6683543C560CD
:100AB000491C1029BFD3F0BDF0B5002300244D0719
:100AC000ED0E02FA05F3CE1000F1200555F8265080
:100AD0004E07F70E0F26BE40B543CF1000F120069B
:100AE00046F82750CE1000F1200555F8265045EA6B
:100AF0000304CE1000F1200545F82640F0BD0A049D
:100B000082617047816170474FF6FF71016000217B
:100B1000017141718171C17170470AB1816101E058
:100B20000B048361704700BFFEE700001CB5012184
:100B3000022000F093FA0420009001208DF80400B8
:100B400000208DF8060003208DF8050001208DF8A7
:100B5000070069460348FFF767FF04210148FFF7D4
:100B6000CEFF1CBD0004024000BFFEE7F0EE400ACD
:100B7000F5EEC00AF1EE10FA02DB9FED030A7047B2
:100B80009FED020AFBE7000000003443000034C37D
:100B9000B0EE401A184880ED001AD0ED001A71EE40
:100BA000E01AC0ED041AD0ED011A90ED042A61EEAE
:100BB000821AB0EE610AD0ED071AF4EEC01AF1EE17
:100BC00010FA03D2D0ED071AB0EE610A0A48D0ED50
:100BD000071AF1EE611AF4EEC01AF1EE10FA05DD13
:100BE000D0ED071AF1EE611AB0EE610A0248D0EDBD
:100BF000041AC0ED051A7047A000002010B52DEDB5
:100C0000088BFFF79EFE0446FFF7A8FE09EE100AC8
:100C10005C48006820445B4908605B480078401CE1
:100C200059490870594890ED000AF0EE409A08467C
:100C3000007802284CDB002008709FED550AB0EECA
:100C400040BA544890ED000AF0EE40BA524800789D
:100C5000012826D101F068FF012813D14F48D0EDBB
:100C6000000AB0EE600A01F06FFFB0EE40BA4948EA
:100C700090ED000A30EE0B0AF0EE40BA0020484931
:100C800008701AE09FED420AB0EE40BA454890ED78
:100C9000000AFFF76BFFF0EE40BA012040490870F0
:100CA0000BE09FED3B0AB0EE40BA3A4890ED000AE7
:100CB000F0EE40BA00203A4908703A48D0ED000AF8
:100CC000B0EE6B0A00F076F8374880ED000A00BFFE
:100CD00033480078012807D12F480078012803D134
:100CE000B0EE0C0AF0EE409A2F4890ED000A39EE73
:100CF00080AA90ED000A79EEC0AA2C4880ED00AAE7
:100D00002B48C0ED00AA00EE104AB8EEC00A2748F2
:100D100000F00AF9F0EE408AB8EEC90A244800F063
:100D200003F9B0EE408AF5EEC08AF1EE10FA07DB67
:100D3000BCEEE80A10EE101A0120FFF753FD08E0A0
:100D4000B1EE680ABCEEC00A10EE101A0020FFF7E0
:100D500049FDB5EEC08AF1EE10FA07DBBCEEC80A19
:100D600010EE101A0120FFF7C5FD08E0B1EE480AA9
:100D7000BCEEC00A10EE101A0020FFF7BBFDBDEC60
:100D8000088B10BD28000020C00000202400002097
:100D900000000000140000202C0000204001002072
:100DA000C1000020100100202000002030000020A1
:100DB00058000020B0EE401A324880ED001A90ED45
:100DC000000A30EE600A80ED040A90ED040ADFEDBF
:100DD0002E1AB4EEE10AF1EE10FA07DD90ED040AE6
:100DE000DFED2A1A30EE610A80ED040A254890ED05
:100DF000040ADFED271AB4EEE10AF1EE10FA07D289
:100E000090ED040ADFED211A30EE210A80ED040A8C
:100E10001C4890ED010AD0ED041A20EE210A1D486D
:100E200080ED000A174890ED070A1A48D0ED001A25
:100E3000B4EEE10AF1EE10FA05D2124890ED070A7D
:100E4000144880ED000A0F4890ED070AB1EE400A01
:100E50001048D0ED001AB4EEE10AF1EE10FA07DD09
:100E6000084890ED070AB1EE400A0A4880ED000AF2
:100E7000044890ED040A80ED050A064890ED000A4A
:100E80007047000080000020000034430000B4439D
:100E9000000034C3200000207047000070B500211E
:100EA00000230F22C4781CB3174C246804F4E064B8
:100EB000C4F5E064C4F30721C1F10404E3B20A41BC
:100EC00044789C40E1B28478144021430C07210E01
:100ED0000E4C05786155047804F01F050124AC40E0
:100EE00005786D11AD0005F1E025C5F8004109E078
:100EF000047804F01F050124AC40054D06787611F6
:100F000045F8264070BD00000CED00E000E400E074
:100F100080E100E002490143024A1160704700008D
:100F20000000FA050CED00E010B52DED088B04462D
:100F3000F0EE408A94ED000A30EE680A84ED040A6F
:100F400094ED060AD4ED040A30EE200A84ED060A78
:100F500094ED060AD4ED070AB4EEE00AF1EE10FAB9
:100F600003DD94ED070A84ED060A94ED060AD4ED3C
:100F7000070AF1EE600AB4EEE00AF1EE10FA05D2CB
:100F800094ED070AB1EE400A84ED060A94ED010AD9
:100F9000D4ED040A20EE200AD4ED020A94ED061ADC
:100FA00000EE810AD4ED040A94ED051A70EEC10A30
:100FB00094ED031AB0EE408A01EE208A94ED080AFF
:100FC000B4EEC80AF1EE10FA03D294ED080AB0EEBE
:100FD000408A94ED080AB1EE400AB4EEC80AF1EE78
:100FE00010FA05DD94ED080AB1EE400AB0EE408A31
:100FF00094ED090A10EE101A0846FFF7E1F841ECEB
:10100000190B18EE100AFFF7DBF841EC1B0BB0EEE2
:101010004B0AF0EE6B0A01F0F5FFB0EE40AAF0EEDD
:1010200060AA53EC192B51EC1A0BFFF7DDF807D22D
:101030009FED080AB0EE408A9FED060A84ED060A8D
:1010400094ED040A84ED050AB0EE480ABDEC088B65
:1010500010BD0000000000007047000029B1064AE2
:1010600012680243044B1A6004E0034A1268824388
:10107000014B1A60704700003038024029B1064A1F
:1010800012680243044B1A6004E0034A1268824368
:10109000014B1A60704700004038024029B1064AEF
:1010A00012680243044B1A6004E0034A1268824348
:1010B000014B1A60704700002038024029B1064AEF
:1010C00012680243044B1A6004E0034A1268824328
:1010D000014B1A60704700004438024029B1064AAB
:1010E00012680243044B1A6004E0034A1268824308
:1010F000014B1A607047000024380240F0B500210F
:1011000000220024022500260223324F3F6807F008
:101110000C0121B1042905D0082937D105E02E4F53
:10112000076036E02D4F076033E02A4F3F1F3F68CE
:10113000C7F38056274F3F1F3F6807F03F036EB14C
:10114000264FB7FBF3F7DFF88CC0ACF1040CDCF8EA
:1011500000C0CCF3881C07FB0CF40CE01E4FB7FB5F
:10116000F3F7DFF870C0ACF1040CDCF800C0CCF38E
:10117000881C07FB0CF4174F3F1F3F68C7F301475C
:101180007F1C7D00B4FBF5F7076002E0124F07609B
:1011900000BF00BF0F4F3F6807F0F0010909104F73
:1011A0007A5C0768D74047600A4F3F6807F4E05110
:1011B000890A0B4F7A5C4768D7408760054F3F68C4
:1011C00007F46041490B064F7A5C4768D740C76017
:1011D000F0BD0000083802400024F40000127A003C
:1011E0002801002010B504462648007820B10128C7
:1011F00028D0022843D13CE00020234908709FED0D
:10120000230A234880ED000A224890ED000AF8EEF8
:10121000C00A9FED210AFFF7BBFC204880ED000AC1
:101220001C490968A1F5D0500438002801DB0146AB
:1012300000E04142852904DA01201249087018486B
:1012400004601CE09FED110A144880ED000A04219F
:101250001448FFF757FC12480068201AB0F5FA7FCF
:1012600006D904210F48FFF74AFC022005490870FF
:1012700005E09FED060A094880ED000A00BF00BFA7
:1012800010BD0000E10000202C0000200000000044
:1012900014000020280000200020D0452400002059
:1012A000E40000200004024010B52DED068B04463A
:1012B0009FEDC00AB0EE408ABF48007809282BD2C3
:1012C000DFE800F0052B4774D3FDF2F1F0000020B9
:1012D000BA4908709FEDB70AB94880ED000AB948CD
:1012E00090ED000AF8EEC00A9FEDB70AFFF750FC38
:1012F000B64880ED000AB3490968A1F5D05004381A
:10130000002801DB014600E04142852904DA012082
:10131000A9490870AE48046048E19FEDA60AAB48B1
:1013200080ED000A0421AB48FFF7ECFBA8480068F9
:10133000201AB0F5FA7F0BD90421A648FFF7DFFB8E
:101340000020A04908609C480078401C9A49087019
:101350002CE10120994908709F4890ED000A9848B7
:1013600080ED000AB2EE0E0A984880ED000A95481A
:10137000006841F60421884217DB974890ED000A87
:10138000DFED960AB4EEE00AF1EE10FA08DA90ED1D
:10139000000ADFED930AB4EEE00AF1EE10FA04D889
:1013A0000320854908708A480460FFE000208349D3
:1013B0000870B1EE000A854880ED000A9FED890AA9
:1013C0007F4880ED000A18EE100AFEF7F9FE41ECA6
:1013D0001A0BB0EE4A0AF0EE6A0A01F013FEB0EE04
:1013E000409AF0EE609A9FED800B53EC102B51EC7D
:1013F000190BFEF711FF01D27D4804607C4800689C
:10140000201A962830D39FED6B0A7A4880ED000AA7
:101410006B4890ED000A7048D0ED000A30EE600A8B
:10142000B0EE408A05E09FED740A38EE400AB0EE57
:10143000408A9FED720AB4EEC08AF1EE10FAF2DC37
:1014400005E09FED6D0A38EE000AB0EE408A9FED90
:10145000650AB4EEC08AF1EE10FAF2D300205949C1
:101460000860042054490870A0E000205349087027
:101470009FED5C0A524880ED000A524890ED000A48
:10148000F8EEC00A9FED500AFFF782FB4F4880ED4F
:10149000000A4C490968A1F5D0500438002805DB42
:1014A000014604E079E059E025E008E04142852961
:1014B00004DA0520404908704548046076E09FED55
:1014C0003D0A424880ED000A04214248FFF71AFB1A
:1014D0003F480068201AB0F5FA7F0BD904213D4837
:1014E000FFF70DFB00203749086033480078401CA7
:1014F000314908705AE0012030490870364890EDB3
:10150000000A2F4880ED000AB2EE0E0A2F4880ED47
:10151000000A2C48006841F69E4188421DDB2E4897
:101520000068FEF74DFE41EC1A0BB0EE4A0AF0EEF1
:101530006A0A01F067FDB0EE409AF0EE609A9FED06
:10154000300B53EC102B51EC190BFEF74DFE04D869
:101550000720194908701E48046027E00020174939
:1015600008709FED140A194880ED000A04211948FB
:10157000FFF7C8FA16480068201AB0F5FA7F0BD9B1
:1015800004211448FFF7BBFA9FED0A0A0C4880EDCE
:10159000000A08200849087008E09FED060A0B4879
:1015A00080ED000A00200549087000BF00BFBDECB7
:1015B000068B10BD00000000E80000202C00002079
:1015C00014000020280000200020D0452400002026
:1015D000EC000020000402401001002000000C4339
:1015E00000000CC3000034C30000000000000440F1
:1015F000F0000020200000200000B443000034432D
:10160000000000000000244070B52DED048B04465E
:101610009FEDFE0A10EE105AFD4800780E2820D2E9
:10162000DFE800F0072059829BDAFDFBFAF9F8F7B2
:10163000F6F50020F74908709FEDF70AF74880EDAE
:10164000000AB2EE0E0AF64880ED000AF54800687E
:1016500041F60421884204DBF34804600120EC4990
:1016600008703BE20020EB4908709FEDE80AEB4868
:1016700080ED000AB0EE080AE94880ED000AEB4868
:10168000D0ED000A9FEDE10A00F04CFF10EE105A79
:101690002846FEF795FD41EC190BB0EE490AF0EE35
:1016A000690A01F0AFFCB0EE408AF0EE608A9FED6F
:1016B000E00B53EC102B51EC180BFEF7ADFD01D2F3
:1016C000D9480460D8480068201A782802D302203C
:1016D000CF49087002E20020CE4908709FEDCB0A86
:1016E000CE4880ED000AB2EE000ACD4880ED000A37
:1016F00001F01AFA012805D0CA48006842F21F31E9
:10170000884210DB9FEDC10AC54880ED000A002029
:10171000C04908700421C848FFF7F4F9C7480460BD
:101720000320BB490870D9E19FEDB80ABC4880EDA1
:10173000000A0020B7490870C0480068201AB0F5B8
:10174000C87F09D30421BC48FFF7D9F90020B54967
:1017500008600420AE490870C0E10120AD4908705E
:10176000B24890ED000AAD4880ED000AB2EE0E0AD4
:10177000AB4880ED000AAB48006841F21D61884229
:1017800012DBAA4890ED000ADFEDAD0AB4EEE00AE4
:10179000F1EE10FA0EDA90ED000ADFEDAA0AB4EECF
:1017A000E00AF1EE10FA05D99E48006842F2E631EF
:1017B000884210DB0020974908709FED940A9848F2
:1017C00080ED000A04219C48FFF79CF99B480460C7
:1017D00005208F49087081E19FED8C0A904880EDCB
:1017E000000A00208B49087094480068201AB0F560
:1017F000C87F0BD304219048FFF781F90020894965
:1018000008608948046006208149087066E15CE14F
:1018100045E1D9E0BFE095E05BE041E0FFE7002073
:101820007C4908709FED880A7C4880ED000A9FED96
:10183000770A7B4880ED000A7C48D0ED000A9FEDD6
:10184000820A00F06FFE10EE105A2846FEF7B8FC30
:1018500041EC190BB0EE490AF0EE690A01F0D2FB37
:10186000B0EE408AF0EE608A9FED710B53EC102BC6
:1018700051EC180BFEF7D0FC01D26B4804606A48AB
:101880000068201A78280AD39FED600A6F4880ED1F
:10189000000A00206349086007205D4908701DE1C7
:1018A00000205C4908709FED6A0A5C4880ED000AE0
:1018B000B2EE0E0A5A4880ED000A5A48006841F616
:1018C0000421884204DB584804600820504908700D
:1018D00004E100204F4908709FED5B0A4F4880EDFE
:1018E000000AB0EE080A4E4880ED000A4F48D0EDDD
:1018F000000A9FED550A00F015FE10EE105A28461A
:10190000FEF75EFC41EC190BB0EE490AF0EE690AF5
:1019100001F078FBB0EE408AF0EE608A9FED440B58
:1019200053EC102B51EC180BFEF776FC01D23E481D
:1019300004603D480068201A782802D30920344901
:101940000870CBE00020334908709FED3F0A334810
:1019500080ED000AB2EE000A314880ED000A01F085
:10196000E3F8012805D02F48006842F21F31884271
:1019700010DB9FED260A2A4880ED000A0020254949
:10198000087004212C48FFF7BDF82C4804600A2099
:101990001F490870A2E09FED1D0A214880ED000A52
:1019A00000201C49087025480068201AB0F5C87F3F
:1019B00009D304212048FFF7A2F800201949086044
:1019C0000B201349087089E001201249087017485C
:1019D00090ED000A114880ED000AB2EE0E0A1048A0
:1019E00080ED000A0F48006841F21D6188423EDB2D
:1019F0000E480068FEF7E4FB41EC190BB0EE490A13
:101A0000F0EE690A01F0FEFA24E000000000000098
:101A1000F40000202C00002066661AC2140000208A
:101A20002400002028000020FC00002010010020DD
:101A3000000000000000144000040240F8000020F4
:101A400000001643000016C3000034C3200000202D
:101A500066660DC3B0EE408AF0EE608A9FED210B02
:101A600053EC102B51EC180BFEF7BEFB05D91F48A9
:101A7000006842F2E631884210DB00201C49087001
:101A80001FED1E0A1B4880ED000A04211A48FFF7CB
:101A900039F81A4804600C20194908701EE01FED3F
:101AA000250A144880ED000A0020114908701348E7
:101AB0000068201AB0F5FA7F06D304210E48FFF71C
:101AC0001EF80D200E49087008E01FED300A094885
:101AD00080ED000A00200649087000BF00BFBDEC81
:101AE000048B70BD00000000000032402800002080
:101AF0002C0000202400002000040240F8000020F8
:101B0000F400002070B52DED048B04469FEDFE0A15
:101B100010EE105AFD4800780E2820D2DFE800F0C1
:101B2000072059829BDAFDFBFAF9F8F7F6F5002059
:101B3000F74908709FEDF70AF74880ED000AB2EE0A
:101B40000E0AF64880ED000AF548006841F60421C7
:101B5000884204DBF34804600120EC4908704DE240
:101B60000020EB4908709FEDE80AEB4880ED000A81
:101B7000B0EE080AE94880ED000AEB48D0ED000A13
:101B80009FEDE10A00F0CEFC10EE105A2846FEF759
:101B900017FB41EC190BB0EE490AF0EE690A01F0AF
:101BA00031FAB0EE408AF0EE608A9FEDE00B53EC24
:101BB000102B51EC180BFEF72FFB01D2D948046013
:101BC000D8480068201A782802D30220CF4908702C
:101BD00014E20020CE4908709FEDCB0ACE4880ED7C
:101BE000000AB2EE000ACD4880ED000A00F09CFF2A
:101BF000012805D0CA48006842F21F31884210DB34
:101C00009FEDC10AC54880ED000A0020C049087058
:101C10000421C848FEF776FFC74804600320BB498B
:101C20000870EBE19FEDB80ABC4880ED000A002087
:101C3000B7490870C0480068201AB0F5967F09D3EC
:101C40000421BC48FEF75BFF0020B5490860042072
:101C5000AE490870D2E10120AD490870B24890ED5C
:101C6000000AAD4880ED000AB2EE0E0AAB4880EDE6
:101C7000000AAB48006841F21D61884212DBAA48A5
:101C800090ED000ADFEDAD0AB4EEE00AF1EE10FAD5
:101C90000EDA90ED000ADFEDAA0AB4EEE00AF1EEEA
:101CA00010FA05D99E48006842F2E631884210DBFE
:101CB0000020974908709FED940A984880ED000A2B
:101CC00004219C48FEF71EFF9B48046005208F49B5
:101CD000087093E19FED8C0A904880ED000A002087
:101CE0008B49087094480068201AB0F5967F0BD392
:101CF00004219048FEF703FF0020894908608948C5
:101D0000046006208149087078E16EE145E1D9E080
:101D1000BFE095E05BE041E0FFE700207C49087010
:101D20009FED880A7C4880ED000A9FED770A7B488A
:101D300080ED000A7C48D0ED000A9FED820A00F099
:101D4000F1FB10EE105A2846FEF73AFA41EC190B57
:101D5000B0EE490AF0EE690A01F054F9B0EE408A9B
:101D6000F0EE608A9FED710B53EC102B51EC180BC9
:101D7000FEF752FA01D26B4804606A480068201AE4
:101D800078280AD39FED600A6F4880ED000A002092
:101D90006349086007205D4908702FE100205C4915
:101DA00008709FED6A0A5C4880ED000AB2EE0E0AE8
:101DB0005A4880ED000A5A48006841F604218842DA
:101DC00004DB5848046008205049087016E10020E0
:101DD0004F4908709FED5B0A4F4880ED000AB0EE56
:101DE000080A4E4880ED000A4F48D0ED000A9FEDEA
:101DF000550A00F097FB10EE105A2846FEF7E0F95E
:101E000041EC190BB0EE490AF0EE690A01F0FAF85C
:101E1000B0EE408AF0EE608A9FED440B53EC102B3D
:101E200051EC180BFEF7F8F901D23E4804603D482A
:101E30000068201A782802D3092034490870DDE0B0
:101E40000020334908709FED3F0A334880ED000AB7
:101E5000B2EE000A314880ED000A00F065FE01286C
:101E600005D02F48006842F21F31884210DB9FEDF9
:101E7000260A2A4880ED000A00202549087004211E
:101E80002C48FEF73FFE2C4804600A201F490870CA
:101E9000B4E09FED1D0A214880ED000A00201C4996
:101EA000087025480068201AB0F5967F09D30421F0
:101EB0002048FEF724FE0020194908600B20134932
:101EC00008709BE0012012490870174890ED000A45
:101ED000114880ED000AB2EE0E0A104880ED000AAB
:101EE0000F48006841F21D6188423EDB0E480068E1
:101EF000FEF766F941EC190BB0EE490AF0EE690AFB
:101F000001F080F824E00000000000000001002043
:101F10002C00002066661AC2140000202400002055
:101F2000280000200801002010010020000000000F
:101F30000000144000040240040100200000164389
:101F4000000016C3000034C32000002066660DC3E5
:101F5000B0EE408AF0EE608A9FED2A0B53EC102B16
:101F600051EC180BFEF740F905D92848006842F2F9
:101F7000E631884210DB0020254908701FED1E0A5B
:101F8000244880ED000A04212348FEF7BBFD2348C6
:101F900004600C202249087030E01FED250A1D481E
:101FA00080ED000A00201A4908701C480068201AB9
:101FB000B0F5967F18D304211748FEF7A0FD194805
:101FC0000078401C1749087008460078042808DA91
:101FD00000200E4908601448046000201049087071
:101FE00002E00D200E49087008E01FED390A09488B
:101FF00080ED000A00200649087000BF00BFBDEC5C
:10200000048B70BD0000000000003240280000205A
:102010002C000020240000200004024004010020C5
:10202000000100200101002008010020704700008D
:102030000CB50020019000903448006840F48030D6
:102040003249086000BF3148006800F40030009059
:102050000198401C0190009818B90198B0F5A04F64
:10206000F1D12A48006800F4003010B1012000903E
:1020700001E0002000900098012846D1234840301C
:10208000006840F0805021494031086020480068D5
:1020900040F440401E4908601C48083000681B4955
:1020A000083108600846006840F4004008600846AF
:1020B000006840F4A05008601648091F0860081F17
:1020C000006840F08070091F086000BF0F4800687A
:1020D00000F000700028F9D040F205700E49086049
:1020E0000A480830006820F00300084908310860F9
:1020F0000846006840F00200086000BF034808304E
:10210000006800F00C000828F8D10CBD003802402F
:102110000070004008544007003C0240042808D1E9
:102120004FF0E021096941F004014FF0E022116114
:1021300007E04FF0E021096921F004014FF0E022AF
:102140001161704702480068401C014908607047EF
:102150002401002010B51548006840F470001349B0
:1021600008601348006840F0010011490860002031
:102170000F49083108600E4800680E4908400C49B4
:1021800008600D48091D0860081F006820F48020C1
:10219000091F0860002006490C310860FFF748FF5E
:1021A0004FF0006001498039086010BD88ED00E003
:1021B00000380240FFFFF6FE1030002430B58BB02F
:1021C00004460D4601210220FEF758FF012102209E
:1021D000FEF744FF2020099002208DF828000320FC
:1021E0008DF8290000208DF82A0001208DF82B00A1
:1021F00009A92248FEF718FC022205211F48FEF714
:102200005BFC1020099009A91C48FEF70DFC022276
:1022100004211A48FEF750FC681E0790601E80B229
:10222000ADF818000020ADF82000ADF81A0006A99E
:10223000134800F035F96020ADF804000120ADF836
:1022400006000020ADF8100001A90D4800F07AF852
:1022500001A90B4800F0BEF80821094800F0B0F8C9
:102260000821074800F008F90121054800F020F88E
:10227000FEF79EFAFEF724FB0BB030BD00040240CF
:102280000004004010B50121054800F041F8012884
:1022900005D1FEF7B3FC0121014800F006F810BD9E
:1022A00000000140CA4302827047CA43028270475D
:1022B00021B1028842F00102028004E002884FF658
:1022C000FE731A4002807047F0B50C4615461E4654
:1022D0000021002200230189028B038C4FF6F8773E
:1022E000394021434FF6FC473A4040F201173A4348
:1022F0004FF6DD773B404FF6FF7707EA06172F438F
:102300003B43018102830384F0BD0146486A704764
:1023100030B50246002000230024158A05EA010397
:10232000958905EA010413B10CB1012000E00020F9
:1023300030BD1AB183890B43838102E083898B43CB
:102340008381704770B5002400220023058C4FF66E
:10235000FE7635400584028C8388048B4FF68F759A
:102360002C40B51E2C400D882C43751E2A408D89AB
:102370002A434D882A43104DA84202D00F4DA8424F
:1023800013D14FF6F7752A40CD892A434FF6FB75D6
:102390002A408D882A434FF6FF652B404FF6FF55A4
:1023A0002B400D8A2B434D8A2B43838004838D68F9
:1023B0004563028470BD000000000140000401403C
:1023C0000A460021018B4FF6F77319401143018330
:1023D0007047000070B5002400220023058C4FF6E2
:1023E000EF7635400584028C8388048B48F6FF75B0
:1023F0002C404FF6FF452C400D884FF6FF7606EA3D
:1024000005252C434FF6DF752A408D8906EA051510
:102410002A434D8806EA05152A43154DA84202D0E5
:10242000144DA8421DD14FF67F752A40CD894FF635
:10243000FF7606EA05152A434FF6BF752A408D88B8
:1024400006EA05152A434FF6FF352B404FF2FF757C
:102450002B400D8A06EA85052B434D8A06EA850541
:102460002B43838004838D688563028470BD0000E4
:1024700000000140000401400A460021018B4FF298
:10248000FF7319404FF6FF7303EA022319430183D8
:102490007047416370478163704741627047000035
:1024A00000220288184B98420ED0184B98420BD04D
:1024B000B0F1804F08D0164B984205D0154B98428A
:1024C00002D0154B984204D14FF68F731A404B88B7
:1024D0001A43124B984207D0114B984204D04FF642
:1024E000FF431A400B891A4302804B68C3620B8872
:1024F0000385054B984202D0044B984201D18B7A58
:1025000003860123838270470000014000040140DC
:102510000004004000080040000C00400010004093
:1025200000140040B0EE401A71EE601AB0EE610A7D
:1025300005E0DFED0E1A70EE611AB0EE610ADFED14
:102540000C1AB4EEE10AF1EE10FAF2DC05E0DFED70
:10255000071A70EE211AB0EE610ADFED061AB4EE2A
:10256000E10AF1EE10FAF2D3704700000000B44324
:1025700000003443000034C31FB501210846FEF7B4
:102580009DFD0020ADF80C00ADF8060040F2E730EC
:10259000029040F28F60ADF8040000208DF80E002C
:1025A00001A91048FFF77CFF01210E48FFF77AFED2
:1025B000012211460B48FFF7BCFE19208DF80000E0
:1025C00001208DF8030002208DF8010000208DF815
:1025D00002006846FEF762FC01210248FFF768FE30
:1025E0001FBD00000000014010B540F22551054814
:1025F00000F0C9F9012804D140F22551014800F04A
:1026000022F910BD0010014010B52DED088B40F2ED
:1026100025515C4800F0B7F900287DD0594800F0FA
:102620006BFAC4B25848007870B9552C08D1564896
:1026300001780078401C544A10705448445499E082
:1026400000205149087095E04F48007801280ED1CC
:10265000532C08D14C4801780078401C4A4A10702D
:102660004A48445486E000204749087082E04648C2
:1026700001780078401C444A107044484454104685
:1026800000780B2876D1414880794049C97940EAE1
:10269000012000B208EE100AB8EEC80A9FED3C1AFD
:1026A000C0EE010A9FED3B0A20EE800AF0EE40AA40
:1026B0009FED390A2AEE800ADFED360A80EE201AF5
:1026C000F0EE418A3548007828B93548C0ED008AD7
:1026D000012032490870B0EE680A00F09DFCB0EEAF
:1026E00040BA2F4890ED000A00F0E4FB6BEE00BA10
:1026F000B0EE680A00F0DEFBB0EE40BA284890ED7C
:10270000000A00F089FCB0EE6B9A0BEE409AB0EE36
:10271000680A00F0CFFB00E031E0B0EE40BA20489C
:1027200090ED000A00F0C6FB6BEE00BAB0EE680A4E
:1027300000F072FCB0EE40BA194890ED000A00F0CB
:102740006BFCB0EE6BAA0BEE00AAF0EE4A0AB0EEFC
:10275000490A00F087FADFED0F0A20EE200ADFEDCC
:102760000E0AC0EE209A0F48C0ED009A00200649DC
:10277000087000BF40F22551024800F064F8BDEC3B
:10278000088B10BD00440040140100208C01002083
:102790000000004700003443DB0F494015010020D2
:1027A000180100201001002010B540F225511E48EC
:1027B00000F0E9F8002836D01B4800F09DF9C4B2BB
:1027C0001A48007850B9AA2C08D118480178007826
:1027D000401C164A1070164844541FE013480078F5
:1027E000002818DD114801780078401C0F4A10704D
:1027F0000F4844541046007804280FDB0C48C0787A
:10280000552804D110460178094800F0E1F900206C
:102810000649087002E000200449087040F2255182
:10282000014800F010F810BD0048004020010020D1
:102830001C01002001F40072B2F5007F00D100BF3E
:10284000CA430280704710B50022002340F66A1484
:10285000A14200D100BF0A1201249440A3B2DC437C
:10286000048010BD21B1828942F40052828104E0CB
:1028700082894DF6FF731A408281704710B5044675
:102880003248844208D101211020FEF727FC0021A4
:102890001020FEF723FC57E02D48844209D1012186
:1028A0004804FEF7FBFB00214FF40030FEF7F6FB77
:1028B0004AE02848844209D101218804FEF7EEFB52
:1028C00000214FF48020FEF7E9FB3DE022488442DE
:1028D00009D10121C804FEF7E1FB00214FF40020DB
:1028E000FEF7DCFB30E01D48844209D101210805D8
:1028F000FEF7D4FB00214FF48010FEF7CFFB23E05E
:102900001748844208D101212020FEF7E7FB00216F
:102910002020FEF7E3FB17E01248844209D1012191
:102920008807FEF7BBFB00214FF08040FEF7B6FBA7
:102930000AE00D48844207D101214005FEF7AEFBB5
:1029400000216005FEF7AAFB10BD00000010014049
:102950000044004000480040004C0040005000404F
:102960000014014000780040007C00400246002036
:10297000B1F5007F00D100BF13880B400BB10120DF
:1029800000E00020704770B50246002400230025B7
:10299000002040F66A16B14200D100BFC1F34215D3
:1029A00001F01F03012606FA03F3012D02D19689D7
:1029B000334006E0022D02D1168A334001E0968AA8
:1029C00033400C12012606FA04F41688344013B181
:1029D0000CB1012000E0002070BDF0B503460024DA
:1029E00000260025002040F66A17B94200D100BF3A
:1029F0001846C1F3421401F01F06012707FA06F535
:102A0000012C01D10C3004E0022C01D1103000E087
:102A100014301AB107682F43076002E00768AF431C
:102A20000760F0BD2DE9FF4705460E460024A1468C
:102A300000BFA046B08900B100BF2C8A24F44054E6
:102A4000F08804432C82AC8941F20C608443B08846
:102A500031890843718908430443AC81AC8A24F46A
:102A60004074B0890443AC826846FEF747FB2048B7
:102A7000854202D01F48854202D1DDF80C9001E06A
:102A8000DDF80890A88900F4004040B109EBC900C6
:102A900000EB091031684900B0FBF1F707E009EBE2
:102AA000C90000EB091031688900B0FBF1F7642020
:102AB000B7FBF0F004012009642101FB1078A8891C
:102AC00000F4004040B1322000EBC800B0FBF1F050
:102AD00000F00700044308E0322000EB08106421F6
:102AE000B0FBF1F000F00F0004432C81BDE8FF873C
:102AF000001001400014014001468888C0F308001E
:102B00007047C1F30802828070474FF4165101608C
:102B100000218180C18001810C21418100218181BE
:102B2000704700BFFEE7000010B501F0EFF805495F
:102B30008968401AC82803D900200249087110BDCD
:102B40000120FCE740010020F0EE400A9FED1E1A34
:102B50001E4880ED001A90ED001A31EE601A80EDEB
:102B6000041A90ED011AD0ED041A21EE211AD0EDCD
:102B7000041A90ED052A71EEC21A90ED032A02EEB6
:102B8000211AB0EE410A90ED061AB4EEC01AF1EE29
:102B900010FA03D290ED061AB0EE410A0B4890ED00
:102BA000061AB1EE411AB4EEC01AF1EE10FA05DDC4
:102BB00090ED061AB1EE411AB0EE410A034890EDCD
:102BC000041A80ED051A704700000000C4000020C0
:102BD00070B52DED028B04460D46042D19DB2078CF
:102BE000AA2816D1E078552813D1A078617840EA58
:102BF000012000B208EE100AB8EEC80A064880EDBF
:102C0000000A01200449087101F080F80249886037
:102C100000BFBDEC028B70BD400100200FB4054B1E
:102C200010B503A9044A029800F056FC10BC5DF8E8
:102C300014FB0000E93C00083801002041000802B4
:102C400018BF04200A0E18BF40F001004FF07F4269
:102C500032EA010108BF40F00200012808BF052048
:102C60007047000010EE100A10B510EE901A4FF0E9
:102C7000684202EB40032DED028BB3F1654F3CBF80
:102C800002EB4102B2F1654F7CD200BFC0F3C753E3
:102C9000C1F3C7529A1A1B2A09DD10F0004F14BF66
:102CA0009FED6E0A9FED6E0ABDEC028B10BD12F116
:102CB0001A0F1BDA11F0004F09D010F0004F0CBFB3
:102CC0009FED680A9FED680ABDEC028B10BD80EE97
:102CD000208A18EE100AFFF7B1FF042808BF00F0A1
:102CE00071FAB0EE480ABDEC028B10BD4200B2EBA7
:102CF000410F37D910F0004F19BFDFED5C1A9FED7F
:102D00005C1ADFED5C1A9FED5C1AB0EE602A0A4691
:102D1000F1EE400A80F00041B0EE420A10460A1A75
:102D20005200B2F1807F34D2484010F0004FDFED06
:102D3000532A9FED533A1DBFBEEE002A71EEE21AF0
:102D400031EE431AB6EE002A04BF71EEA21A31EE3C
:102D5000031AF0EE402A42EE602A40EE020A82EEAA
:102D6000A02A18E011F0004F04BF9FED461AF0EEC4
:102D7000411AD4D010F0004F1CBFDFED431A9FED75
:102D8000431A00E026E004BFDFED411A9FED411A2F
:102D9000C5E780EE202A22EE020ADFED3F0ADFEDD2
:102DA0003F2ABDEC028B40EE202ADFED3D0A40EECB
:102DB000220ADFED3C2A40EE202ADFED3B0A40EEFE
:102DC000220A22EE000A00EE201A31EE020A30EE4C
:102DD000210A10BD4FF07F42B2EB400F28BFB2EB8B
:102DE000410F05D2BDEC028BBDE8104000F0DFB909
:102DF00040EA01035B0008BF41F0FF410BD0B2EB9A
:102E0000400F08BFB2EB410F08D120F0804000EE28
:102E1000100A21F0804100EE901A37E7B2EB400F24
:102E200012BF5FEA410240F0FF4001F000413FF471
:102E30002DAF4A0092EA40033FF528AF002AACBF0D
:102E40009FED1A1A9FED1A1A20EE010A60EE810A10
:102E500010EE100A10EE901A18E70000DB0FC9BF41
:102E6000DB0FC93FDB0F4940DB0F49C00000C9BF82
:102E700022AAFDB90000C93F22AAFD390060ED3E3B
:102E8000C30ACE3700000000000049C022AA7DBA64
:102E90000000494022AA7D3A2DAD65BD8FB8D53DD1
:102EA0000FB511BE61C84C3EA8AAAABE0000804F53
:102EB0000000802F10EE101A08B5444A6846B2EBA5
:102EC000410F28D94FF0E640B0EB410F94BF0020EE
:102ED0004FF0FF3000900098002861DB60EE000AA0
:102EE00010F0010F45D010F0020FDFED391A9FED01
:102EF000391A00EEE11ADFED381A40EE811A21EEA0
:102F0000A01AF0EE400A40EE010A08BFF1EE600A96
:102F1000B0EE600A08BD314B21F0004293423CD92B
:102F200011F0004FDFED2E0A20EE201ADFED2D0A02
:102F300019BF31EE601A71EE200A31EE201A71EEDF
:102F4000600ABDEEE01A11EE100A9FED271A00F09C
:102F5000030000EEC10A9FED251A009000EEC10AA1
:102F60009FED231A00EEC10A9FED221A00EEC10A5E
:102F7000B1E79FED211A9FED210A10F0020F00EE3C
:102F8000810A9FED1F1A00EE801AB7EE000A00EECC
:102F9000810A18BFB1EE400A08BD00F01BF99AE79C
:102FA00010EE100A4000B0F17F4F3CBFB7EE000AB0
:102FB00008BD07D14FF0010000F0C6F9BDE8084098
:102FC00000F0F8B8BDE8084000F0EEB8B61F927EF9
:102FD000336D4C39DA82083CA0AA2ABE490E494614
:102FE00083F9223F0000004B0000C93F00A0FD39DB
:102FF0000020A2331A61342CB93AB2BACA9F2A3DD2
:10300000DDFFFFBE2DED020B019820F00040019086
:103010009DED000B02B0704700B510EE101A2DEDBB
:10302000028B81B0524A6846B2EB410F2ED94FF065
:10303000E640B0EB410F94BF00204FF0FF3000900E
:103040000098B0EE408A00286ADB10F0010F4BD0E8
:1030500068EE080A9FED471A9FED470A00EE810AC5
:103060009FED461A10F0020F00EE801AB7EE000A2C
:1030700000EE810A02BF01B0BDEC028B00BD00BFB3
:1030800001B0B1EE400ABDEC028B00BD3C4B21F01B
:103090000042934241D911F0004FDFED3A0A20EE91
:1030A000201ADFED390A19BF31EE601A71EE200ADD
:1030B00031EE201A71EE600ABDEEE01A11EE100A30
:1030C0009FED321A00F0030000EEC10A9FED301AA6
:1030D000009000EEC10A9FED2F1A00EEC10A9FED8D
:1030E0002E1A00EEC10AABE728EE080A9FED2B1A54
:1030F000DFED2B0A10F0020F40EE410A9FED291A76
:1031000000EE201A61EE000AB0EE480A08EE200A2E
:10311000B6D101B0BDEC028B00BD00F05BF88FE7CB
:1031200018EE100A4000B0F17F4F0DD218EE100AD1
:10313000FFF784FD042808BF00F044F8B0EE480A09
:1031400001B0BDEC028B00BD09D1012000F0FCF8FC
:1031500001B0BDEC028B5DF804EB00F02BB801B0C0
:10316000B0EE480ABDEC028B5DF804EB00F01CB831
:10317000B61F927EB93AB2BACA9F2A3DDDFFFFBEA2
:10318000490E494683F9223F0000004B0000C93F29
:1031900000A0FD390020A2331A61342C336D4C3964
:1031A000DA82083CA0AA2ABE30EE000A704730EE50
:1031B000200A7047DFED020A80EEA00A7047000087
:1031C000000000009FED020A20EE000A7047000098
:1031D000000000102DE9F0014FF07F42B2EB410FEB
:1031E0009FBF4FF0FF310160BDE8F00170474FF025
:1031F000004242EA0123C1F3C752783A551112F056
:103200001F0C434CCCF120067C44C1F3C752A2F101
:1032100078024FEA621204EB820254F8254008BF9C
:10322000D2E9015612D0556804FA0CF425FA06F7D3
:103230003C43976805FA0CF527FA06F8D26807FAB6
:103240000CFCF24045EA08054CEA0206A4FB034CDC
:10325000A5FB0352A6FB03631D449D4234BF012618
:1032600000261319334416B1934202D903E0934266
:1032700001D2012200E00022624402F1200C9206F9
:10328000DC0C42EA443200EE102A5B03DFED210A37
:10329000F8EEC01A00EE103A4FEA9C1C11F0004FF5
:1032A000B8EE400AC0F800C020EE201A00EE105A16
:1032B000DFED190AB8EE400A20EE200A71EE810A0D
:1032C00070EE800A10EE902A02F500626FF30B0296
:1032D00000EE902A70EEE11A31EEC11ADFED101AFD
:1032E00030EE411A9FED0D0A20EE800A01EE210A10
:1032F0009FED0C1A00EE810A04BFBDE8F001704793
:10330000CCF180510160BDE8F001B1EE400A704798
:10331000900E0000000000360000802C22AAFD293B
:10332000DB0FC92F0000C92F02E008C8121F08C117
:10333000002AFAD170477047002001E001C1121F36
:10334000002AFBD170470000014908607047000067
:103350003C0100202DE9FF5F82B00021DDE904304F
:10336000020DDDF840B0034318D044F61050A2F22D
:10337000FF3242431514119801281FD0A5EB0B0012
:10338000401C5FEA000A4FF000064E4FDFF838910C
:10339000B046504615D5CAF1000413E01198012437
:1033A0004AA3012801D16FEA0B010298119AC0E9E2
:1033B0000031C0E9024206B0BDE8F09FCBF1000049
:1033C000DFE704460021404A491842EB0450CDE9AA
:1033D000001012E0E00707D032463B46404649461F
:1033E000FDF720F88046894632463B46104619468E
:1033F000FDF718F806460F466410002CEAD1DDE907
:103400000401DDE90023BAF1000F06DAFDF70AF83E
:1034100042464B46FDF706F805E0FDF775F84246D3
:103420004B46FDF771F804460E460022284BFCF788
:10343000F3FE03D84FF0FF30014607E00022254B92
:1034400020463146FCF747FFFDF7CDF8102409E090
:10345000002C0ADB0A220023FCF70CFF039B30320E
:103460001A55641E50EA0102F2D1641C039AC4F199
:1034700011031444119A012A03D0012208430DD1EB
:103480000AE0084304D000204FF0110B119072E7BE
:10349000A3EB0B056D1E0DE05B4504DD4FF0000254
:1034A00005F1010504E003DA4FF00002A5F1010582
:1034B000002AECD002981199C0E90231C0E9004518
:1034C00079E70000000014400000F03F30000000E9
:1034D0000000F0430000E03F2DE9FF4F95B09B4610
:1034E0008946064600250FE2252877D10024274685
:1034F000F84A0121059400E0044316F8013F203BFF
:1035000001FA03F01042F7D130782A2811D06FF079
:103510002F033078A0F13002092A16D8059A44F01A
:10352000020402EB820203EB42021044761C059077
:10353000EFE759F8042B0592002A03DA504244F4CD
:103540000054059044F00204761C30782E2816D1E1
:1035500016F8010F44F004042A280DD06FF02F0252
:103560003078A0F13003092B09D807EB870302EB71
:103570004303C718761CF3E759F8047B761C3078B0
:103580006C280FD006DC4C2817D068280DD06A288C
:1035900014D104E0742810D07A280FD10DE044F43F
:1035A00000140AE044F4801401E044F440147278FA
:1035B000824202D104F58014761C761C307866288D
:1035C0000BD013DC582877D009DC002875D04528AB
:1035D000F6D04628F4D047281AD19DE118E0632898
:1035E00035D0642879D0652812D195E1702873D040
:1035F00008DC6728F1D069286FD06E280DD06F28BD
:1036000006D1B5E073282CD0752875D0782874D0F1
:103610005A46179990476D1C75E1C4F30250022871
:1036200009D003280DD0D9F8001004280DD00D6062
:1036300009F1040967E1D9F80010EA17C1E900525D
:10364000F6E7D9F800100D80F2E70D70F0E719F8F1
:10365000041B8DF8001000208DF80100EA460120BF
:1036600003E059F804AB4FF0FF3061074FF0000161
:1036700002D40DE008F101018846B9420FDA804515
:10368000F8DB1AF808100029F4D108E008F101016C
:1036900088468142FADB1AF808100029F6D105980D
:1036A0005B46A0EB080721463846179A00F094FACB
:1036B000284400EB080507E04DE029E10DE01AF889
:1036C000010B5A4617999047B8F10108F7D25B46AB
:1036D00021463846179A13E142E00A220092C4F3C9
:1036E00002524FF0000A022A08D059F804CB032AEC
:1036F0004FEAEC710AD00DE029E02AE009F1070158
:1037000021F00702F2E802C1914609E00FFA8CFCB1
:103710004FEAEC71042A03D14FFA8CFC4FEAEC71AA
:10372000002907DA0A460021DCF1000C61EB0201F6
:103730002D2202E0220504D52B228DF8042001223F
:1037400003E0E20701D02022F7E7904659E00A2182
:1037500002E010220DE010214FF0000A00910BE072
:1037600010224FF0000A44F004040827009203E0FE
:1037700008224FF0000A0092C4F30252022A05D038
:1037800059F804CB0021032A08D009E009F1070108
:1037900021F00702F2E802C1914605E01FFA8CFC15
:1037A000042A01D10CF0FF0C4FF00008220728D5A5
:1037B000702806D0009B83F0100353EA0A0305D05B
:1037C0000EE040228DF80420012208E05CEA0102AC
:1037D00006D030228DF804208DF805000222904694
:1037E000009B83F0080353EA0A030AD15CEA010252
:1037F00001D1620705D530228DF804204FF0010871
:103800007F1E582804D034A003900EA802900DE02B
:1038100036A0F9E753466046009AFCF72BFD844634
:103820000398825C0298401E029002705CEA0100DC
:10383000F0D1029806A9081A00F1200A600702D503
:1038400024F4803400E00127574502DDA7EB0A008D
:1038500000E0002000EB0A01009005984144401A66
:103860000590E00306D45B462146179A059800F0C0
:10387000B3F90544002706E001A85A46C05D179930
:1038800090476D1C7F1C4745F6DBE0030CD55B467B
:103890002146179A059800F09FF9054404E030206E
:1038A0005A46179990476D1C0099481E00900029B0
:1038B000F5DC08E0029802995A460078491C02910A
:1038C000179990476D1CBAF10001AAF1010AF1DCC9
:1038D00065E10000092801003031323334353637D4
:1038E000383961626364656600000000303132334C
:1038F00034353637383941424344454600000000EC
:1039000000F058F90544761C307800287FF4ECADBF
:1039100019B02846BDE8F08F620700D4062709F1E8
:10392000070222F0070CFCE80223E14603F00048FE
:103930005FEA080C02D00FF2702C0DE05FEA045C25
:1039400002D50FF2682C07E05FEAC47C02D00FF2C8
:10395000602C01E0AFF2700C4FF0FF3823F0004311
:10396000CDF850C065280CD006DC452809D0462883
:103970001DD047283DD13DE0662818D067287ED16C
:1039800038E00021112F01DB112000E0781CCDE987
:10399000000106A90EA8FFF7DDFCDDE90F010E9A74
:1039A00003910021009207F1010A04914DE04FF0CC
:1039B00000400097CDE9011006A90EA8FFF7CAFC48
:1039C000DDE90F0203920E9B11990022DDF80CA095
:1039D0000093049211B9791C00EB010AB7EB0A00BD
:1039E00004D4C0F1FF3007F1010A0490AAEB0700EC
:1039F000019044E0012F00DA01270021112F01DDA1
:103A0000112000E03846CDE9000106A90EA8FFF715
:103A1000A1FCDDE90F010E9A0391002104910092AF
:103A2000BA4621070CD40399514500DA8A46BAF107
:103A3000010F05DD009AAAF10101515C302908D07F
:103A4000B84202DA10F1040F06DA0121CDE90110C3
:103A500015E0AAF10101E9E7002805DC0499014419
:103A60000491AAEB000102E0411C514500DD8A46A9
:103A70000499401A401C01904FF00040029020072A
:103A800004D40198504501DBCDF8048000208DF866
:103A90004F0002980DF14F07B0F1004F25D02B20B9
:103AA0000E9002984FF0020800280CDA4042029073
:103AB0002D200E9007E00A210298FCF7C5FB30315B
:103AC000029007F8011DB8F10001A8F10108F2DC2D
:103AD00002980028EFD1791E0E980870307800F017
:103AE000200040F0450007F8020D12A8C01B00F1AD
:103AF00007081498007800B1012000EB0A01019832
:103B000001EBE07105984144401A401E0590E00326
:103B100006D45B462146179A059800F05DF80544E7
:103B20001498007818B15A46179990476D1CE00315
:103B300024D55B462146179A059800F04DF80544B8
:103B40001CE00498002807DBDDE90301884203DD5F
:103B50000098405C179901E0179930205A46904729
:103B6000049805F10105401C04900198401E019045
:103B700004D12E205A46179990476D1CBAF10001C6
:103B8000AAF1010ADDDC05E017F8010B5A46179986
:103B900090476D1CB8F10001A8F10108F4DC5B4608
:103BA0002146179A0598ABE62D0000002B00000077
:103BB000200000002DE9F041044600251E4617466E
:103BC000880404D405E039462020B0476D1C641EEB
:103BD000F9D52846BDE8F0812DE9F04104460025DD
:103BE0001E469046C80301D5302700E020278804F0
:103BF00004D505E041463846B0476D1C641EF9D532
:103C00002846BDE8F081000070B54FF0006019490A
:103C100008600420FEF782FA174800684FF47A72B1
:103C2000B0FBF2F1481EB0F1807F01D301201CE00F
:103C3000481E4FF0E022506150170F22002808DA8A
:103C400013071D0E0B4B103300F00F04241F1D55DE
:103C500003E013071C0E094B1C5400BF00204FF05B
:103C6000E022906107201061002008B100BFFEE74C
:103C700070BD000008ED00E00000002000E400E05E
:103C800010B504464FF47A7104FB01F000F002F81D
:103C900010BD000070B503460022114D2D68114E75
:103CA000B5FBF6F505FB03F44FF0E025A96913E039
:103CB0004FF0E025A86988420ED0884202D20D1A42
:103CC0002A4405E04FF0E0256D692D1A0D442A4481
:103CD0000146A24200D300E0EAE700BF70BD000049
:103CE0000000002040420F0070B504460D46E1B2CE
:103CF0000548FEF706FF00BF80210348FEF736FEA9
:103D00000028F9D0204670BD00100140014800682D
:103D100070470000240100202DED048B84B04FF487
:103D2000A060FDF7F7F8FFF76FFF4FF4E13000F008
:103D300095F84FF4E13000F00BF94FF4E13000F06A
:103D40005BF9FCF773FDFCF717FEFCF7ABFDFCF726
:103D5000EDFEFCF773FD9FED270A274880ED000A72
:103D6000FEF70AFC4FF4FA60FFF78AFF23A0FEF784
:103D700055FF02E03220FFF783FF28480079002832
:103D8000F8D027A0FEF74AFF2B4890ED000A2B48F9
:103D900080ED000A00202A4908602AE0FFF7B6FFFC
:103DA000044628480068201A642817D32548046070
:103DB00011480068FCF704FA41EC180B1E48006833
:103DC000FCF7FEF941EC190B8DED028B1C480068E5
:103DD00053EC192B00901CA0FEF720FF1E48006832
:103DE000201A142804D31C4804602046FCF72CFD3C
:103DF00000BFD3E700000000240000205761697471
:103E0000696E6720666F7220566973696F6E204D08
:103E10006F64756C652E2E2E0D0A00004001002087
:103E2000566973696F6E204F6E6C696E652120470D
:103E30006F210D0A00000000100100201400002076
:103E40002800002018000020252E31662C25642C27
:103E5000252E31660D0A00001C00002010B588B028
:103E6000044601210846FDF7F9F8072209213648E2
:103E7000FCF722FE07220A213348FCF71DFE06A8A4
:103E8000FCF742FE4FF40070069002208DF81C00F3
:103E900003208DF81D0000208DF81E0001208DF8F4
:103EA0001F0006A92848FCF7BFFD06A8FCF72CFE5A
:103EB0004FF48060069002208DF81C0003208DF8DE
:103EC0001D0000208DF81E0001208DF81F0006A99E
:103ED0001D48FCF7A9FD01211020FDF7EFF81B4854
:103EE000FEF7CCFC02A8FEF710FE02940020ADF80D
:103EF0000C00ADF80E00ADF810000C20ADF812006B
:103F00000020ADF8140002A91048FEF78BFD202117
:103F10000E48FEF78FFC012240F225510B48FEF7B8
:103F20005CFD01210948FEF79DFC25208DF8040069
:103F300001208DF805008DF806008DF8070001A816
:103F4000FCF7ACFF08B010BD0000024000100140BB
:103F500010B588B0044601210846FDF77FF801211D
:103F60004804FDF78BF8072202212148FCF7A4FD45
:103F7000072203211E48FCF79FFD0C20069002201B
:103F80008DF81C0003208DF81D0000208DF81E0008
:103F900001208DF81F0006A91548FCF745FD02A871
:103FA000FEF7B3FD02940C20ADF8120002A91148EF
:103FB000FEF738FD20210F48FEF73CFC012240F2BD
:103FC00025510C48FEF709FD01210A48FEF74AFC7D
:103FD00026208DF8040000208DF8050001208DF8C2
:103FE00006008DF8070001A8FCF758FF08B010BDC7
:103FF000000002400044004010B588B00446012192
:104000000220FDF72BF801218804FDF737F807227D
:104010000A212048FCF750FD07220B211D48FCF720
:104020004BFD4FF44060069002208DF81C000320E9
:104030008DF81D0000208DF81E0001208DF81F0056
:1040400006A91448FCF7F0FC02A8FEF75EFD0294F6
:104050000C20ADF8120002A90F48FEF7E3FC012284
:1040600040F225510C48FEF7B8FC01210A48FEF742
:10407000F9FB27208DF8040001208DF805000020B1
:104080008DF8060001208DF8070001A8FCF706FF57
:1040900008B010BD000402400048004000000000CD
:1040A0006E83F9A22915444ED15727FCC0DD34F5A3
:1040B000999562DB4190433CAB6351FEDC400008C4
:1040C0000000002040010000580700082C410008B3
:1040D00040010020580400003833000811847A039E
:1040E0000A000922010203040607080907127041A9
:1040F0009A99993F13C8432C806D4420092C280AB3
:1041000011C0244143FA430516CDCC4C3E830C42EA
:104110001924423DA50AD7A33C5AF06001462D015F
:0C412000020304048506070809000000E3
:040000050800018965
:00000001FF
